{
    "tests/cancun/eip1153_tstore/test_basic_tload.py::test_basic_tload_other_after_tstore[fork_Cancun-blockchain_test_from_state_test]": {
        "network": "Cancun",
        "genesisBlockHeader": {
            "parentHash": "0x0000000000000000000000000000000000000000000000000000000000000000",
            "uncleHash": "0x1dcc4de8dec75d7aab85b567b6ccd41ad312451b948a7413f0a142fd40d49347",
            "coinbase": "0x0000000000000000000000000000000000000000",
            "stateRoot": "0xdd26e5e2af696f54607e590bbbb4ae4a69e449e82e9b9e542a5a5b6012061f8f",
            "transactionsTrie": "0x56e81f171bcc55a6ff8345e692c0f86e5b48e01b996cadc001622fb5e363b421",
            "receiptTrie": "0x56e81f171bcc55a6ff8345e692c0f86e5b48e01b996cadc001622fb5e363b421",
            "bloom": "0x00000000000000000000000000000000000000000000000000000000000000000000000000000000000000000000000000000000000000000000000000000000000000000000000000000000000000000000000000000000000000000000000000000000000000000000000000000000000000000000000000000000000000000000000000000000000000000000000000000000000000000000000000000000000000000000000000000000000000000000000000000000000000000000000000000000000000000000000000000000000000000000000000000000000000000000000000000000000000000000000000000000000000000000000000000000",
            "difficulty": "0x00",
            "number": "0x00",
            "gasLimit": "0x055d4a80",
            "gasUsed": "0x00",
            "timestamp": "0x00",
            "extraData": "0x00",
            "mixHash": "0x0000000000000000000000000000000000000000000000000000000000000000",
            "nonce": "0x0000000000000000",
            "baseFeePerGas": "0x07",
            "withdrawalsRoot": "0x56e81f171bcc55a6ff8345e692c0f86e5b48e01b996cadc001622fb5e363b421",
            "blobGasUsed": "0x00",
            "excessBlobGas": "0x00",
            "parentBeaconBlockRoot": "0x0000000000000000000000000000000000000000000000000000000000000000",
            "hash": "0xd36b8e237417acd6fd3b37545666a774bb0220a0e73e153403a4198e07701a46"
        },
        "pre": {
            "0x1000000000000000000000000000000000001000": {
                "nonce": "0x01",
                "balance": "0x00",
                "code": "0x5b605860035d60005c6001556001600255",
                "storage": {
                    "0x01": "0xff"
                }
            },
            "0xa94f5374fce5edbc8e2a8697c15331677e6ebf0b": {
                "nonce": "0x00",
                "balance": "0x6124fee993bc0000",
                "code": "0x",
                "storage": {}
            }
        },
        "postState": {
            "0x1000000000000000000000000000000000001000": {
                "nonce": "0x01",
                "balance": "0x00",
                "code": "0x5b605860035d60005c6001556001600255",
                "storage": {
                    "0x02": "0x01"
                }
            },
            "0xa94f5374fce5edbc8e2a8697c15331677e6ebf0b": {
                "nonce": "0x01",
                "balance": "0x6124d7550532ca00",
                "code": "0x",
                "storage": {}
            },
            "0x2adc25665018aa1fe0e6bc666dac8fc2697ff9ba": {
                "nonce": "0x00",
                "balance": "0x27948e849007",
                "code": "0x",
                "storage": {}
            }
        },
        "lastblockhash": "0x8bf913bb1c26cf4a75d357d1986441b215682494b38128ee4cbafb2c0f3dd6e5",
        "config": {
            "network": "Cancun",
            "chainid": "0x01",
            "blobSchedule": {
                "Cancun": {
                    "target": "0x03",
                    "max": "0x06",
                    "baseFeeUpdateFraction": "0x32f0ed"
                }
            }
        },
        "genesisRLP": "0xf9023cf90236a00000000000000000000000000000000000000000000000000000000000000000a01dcc4de8dec75d7aab85b567b6ccd41ad312451b948a7413f0a142fd40d49347940000000000000000000000000000000000000000a0dd26e5e2af696f54607e590bbbb4ae4a69e449e82e9b9e542a5a5b6012061f8fa056e81f171bcc55a6ff8345e692c0f86e5b48e01b996cadc001622fb5e363b421a056e81f171bcc55a6ff8345e692c0f86e5b48e01b996cadc001622fb5e363b421b9010000000000000000000000000000000000000000000000000000000000000000000000000000000000000000000000000000000000000000000000000000000000000000000000000000000000000000000000000000000000000000000000000000000000000000000000000000000000000000000000000000000000000000000000000000000000000000000000000000000000000000000000000000000000000000000000000000000000000000000000000000000000000000000000000000000000000000000000000000000000000000000000000000000000000000000000000000000000000000000000000000000000000000000000000000000000808084055d4a80808000a0000000000000000000000000000000000000000000000000000000000000000088000000000000000007a056e81f171bcc55a6ff8345e692c0f86e5b48e01b996cadc001622fb5e363b4218080a00000000000000000000000000000000000000000000000000000000000000000c0c0c0",
        "blocks": [
            {
                "blockHeader": {
                    "parentHash": "0xd36b8e237417acd6fd3b37545666a774bb0220a0e73e153403a4198e07701a46",
                    "uncleHash": "0x1dcc4de8dec75d7aab85b567b6ccd41ad312451b948a7413f0a142fd40d49347",
                    "coinbase": "0x2adc25665018aa1fe0e6bc666dac8fc2697ff9ba",
                    "stateRoot": "0x1cde666e023bf51d3b920f757b9c276b1e887523b4bc661e888106d04231fa8a",
                    "transactionsTrie": "0xec415fa4929c524cb088fb85f5c9fef2c29b17983b5ddaf579599334ed91444c",
                    "receiptTrie": "0x9310b6cb1f8ffff4c3487dd90187d2821ba5e64f275ceb859ff0835636df64ff",
                    "bloom": "0x00000000000000000000000000000000000000000000000000000000000000000000000000000000000000000000000000000000000000000000000000000000000000000000000000000000000000000000000000000000000000000000000000000000000000000000000000000000000000000000000000000000000000000000000000000000000000000000000000000000000000000000000000000000000000000000000000000000000000000000000000000000000000000000000000000000000000000000000000000000000000000000000000000000000000000000000000000000000000000000000000000000000000000000000000000000",
                    "difficulty": "0x00",
                    "number": "0x01",
                    "gasLimit": "0x055d4a80",
                    "gasUsed": "0xa9ff",
                    "timestamp": "0x03e8",
                    "extraData": "0x00",
                    "mixHash": "0x0000000000000000000000000000000000000000000000000000000000000000",
                    "nonce": "0x0000000000000000",
                    "baseFeePerGas": "0x07",
                    "withdrawalsRoot": "0x56e81f171bcc55a6ff8345e692c0f86e5b48e01b996cadc001622fb5e363b421",
                    "blobGasUsed": "0x00",
                    "excessBlobGas": "0x00",
                    "parentBeaconBlockRoot": "0x0000000000000000000000000000000000000000000000000000000000000000",
                    "hash": "0x8bf913bb1c26cf4a75d357d1986441b215682494b38128ee4cbafb2c0f3dd6e5"
                },
                "transactions": [
                    {
                        "type": "0x00",
                        "chainId": "0x01",
                        "nonce": "0x00",
                        "gasPrice": "0x3b9aca00",
                        "gasLimit": "0x4c4b40",
                        "to": "0x1000000000000000000000000000000000001000",
                        "value": "0x00",
                        "data": "0x",
                        "v": "0x26",
                        "r": "0x4aaf1deac8d0b1f30235e83bc5817c3e8876a7aec0cece35431e79b38c27febe",
                        "s": "0x625c93f70c8081898aff1059c41aeacbb23d33f2a3e9de428b65979498f1890f",
                        "sender": "0xa94f5374fce5edbc8e2a8697c15331677e6ebf0b"
                    }
                ],
                "uncleHeaders": [],
                "withdrawals": [],
                "rlp": "0xf902a7f9023aa0d36b8e237417acd6fd3b37545666a774bb0220a0e73e153403a4198e07701a46a01dcc4de8dec75d7aab85b567b6ccd41ad312451b948a7413f0a142fd40d49347942adc25665018aa1fe0e6bc666dac8fc2697ff9baa01cde666e023bf51d3b920f757b9c276b1e887523b4bc661e888106d04231fa8aa0ec415fa4929c524cb088fb85f5c9fef2c29b17983b5ddaf579599334ed91444ca09310b6cb1f8ffff4c3487dd90187d2821ba5e64f275ceb859ff0835636df64ffb9010000000000000000000000000000000000000000000000000000000000000000000000000000000000000000000000000000000000000000000000000000000000000000000000000000000000000000000000000000000000000000000000000000000000000000000000000000000000000000000000000000000000000000000000000000000000000000000000000000000000000000000000000000000000000000000000000000000000000000000000000000000000000000000000000000000000000000000000000000000000000000000000000000000000000000000000000000000000000000000000000000000000000000000000000000000000800184055d4a8082a9ff8203e800a0000000000000000000000000000000000000000000000000000000000000000088000000000000000007a056e81f171bcc55a6ff8345e692c0f86e5b48e01b996cadc001622fb5e363b4218080a00000000000000000000000000000000000000000000000000000000000000000f866f86480843b9aca00834c4b40941000000000000000000000000000000000001000808026a04aaf1deac8d0b1f30235e83bc5817c3e8876a7aec0cece35431e79b38c27febea0625c93f70c8081898aff1059c41aeacbb23d33f2a3e9de428b65979498f1890fc0c0",
                "blocknumber": "1"
            }
        ],
        "sealEngine": "NoProof",
        "_info": {
            "hash": "0x2aec2dea33f032fae36aba3404e2e61202b7675764372ef9a700918f0f957cf1",
            "comment": "`execution-spec-tests` generated test",
            "filling-transition-tool": "ethereum-spec-evm-resolver 0.0.5",
            "description": "Ported .json vectors.\n\n    (03_tloadAfterStoreIs0Filler.yml)\n    Loading any other slot after storing to a slot returns 0.",
            "url": "https://github.com/ethereum/execution-spec-tests/blob/e78565158bad26de99c70138163d49321a6acc84/tests/cancun/eip1153_tstore/test_basic_tload.py#L128",
            "fixture-format": "blockchain_test",
            "reference-spec": "https://github.com/ethereum/EIPs/blob/master/EIPS/eip-1153.md",
            "reference-spec-version": "1eb863b534a5a3e19e9c196ab2a7f3db4bb9da17",
            "eels-resolution": {
                "git-url": "https://github.com/ethereum/execution-specs.git",
                "branch": "forks/bpos",
                "commit": "7aacb2c54111391af5e98c505d5010b5698a770f"
            }
        }
    }
}