{
    "tests/cancun/eip6780_selfdestruct/test_selfdestruct_revert.py::test_selfdestruct_created_in_same_tx_with_revert[fork_Cancun-blockchain_test_from_state_test-no_outer_selfdestruct-same_tx]": {
        "network": "Cancun",
        "genesisBlockHeader": {
            "parentHash": "0x0000000000000000000000000000000000000000000000000000000000000000",
            "uncleHash": "0x1dcc4de8dec75d7aab85b567b6ccd41ad312451b948a7413f0a142fd40d49347",
            "coinbase": "0x0000000000000000000000000000000000000000",
            "stateRoot": "0x0a68083efacc6e6e89c4488c040a43ad99836377cb37ba86de596876c5f27ad7",
            "transactionsTrie": "0x56e81f171bcc55a6ff8345e692c0f86e5b48e01b996cadc001622fb5e363b421",
            "receiptTrie": "0x56e81f171bcc55a6ff8345e692c0f86e5b48e01b996cadc001622fb5e363b421",
            "bloom": "0x00000000000000000000000000000000000000000000000000000000000000000000000000000000000000000000000000000000000000000000000000000000000000000000000000000000000000000000000000000000000000000000000000000000000000000000000000000000000000000000000000000000000000000000000000000000000000000000000000000000000000000000000000000000000000000000000000000000000000000000000000000000000000000000000000000000000000000000000000000000000000000000000000000000000000000000000000000000000000000000000000000000000000000000000000000000",
            "difficulty": "0x00",
            "number": "0x00",
            "gasLimit": "0x055d4a80",
            "gasUsed": "0x00",
            "timestamp": "0x00",
            "extraData": "0x00",
            "mixHash": "0x0000000000000000000000000000000000000000000000000000000000000000",
            "nonce": "0x0000000000000000",
            "baseFeePerGas": "0x07",
            "withdrawalsRoot": "0x56e81f171bcc55a6ff8345e692c0f86e5b48e01b996cadc001622fb5e363b421",
            "blobGasUsed": "0x00",
            "excessBlobGas": "0x00",
            "parentBeaconBlockRoot": "0x0000000000000000000000000000000000000000000000000000000000000000",
            "hash": "0x14d73051324a5a7851a9c877e995daa81d441bba0cb4afe2939d96e31bc94b2a"
        },
        "pre": {
            "0xa94f5374fce5edbc8e2a8697c15331677e6ebf0b": {
                "nonce": "0x00",
                "balance": "0x3635c9adc5dea00000",
                "code": "0x",
                "storage": {}
            },
            "0x1000000000000000000000000000000000001000": {
                "nonce": "0x01",
                "balance": "0x00",
                "code": "0x61003a600081600b8239f35f35738a0a19589531694250d570040a0c4b74576919b890805f14602f57600114602557005b6001805401600155ff5b60015f54015f555f80f3",
                "storage": {}
            },
            "0x1000000000000000000000000000000000001100": {
                "nonce": "0x01",
                "balance": "0x03",
                "code": "0x5f3560017364e2ebd6405af8cb348aec519084d3fff42ebba69190815f14603a5750600114602957005b5f6020816001819481835245f15f80fd5b90505f80525f8060208160018645f1505f525f80602081803045f150316001555f80f3",
                "storage": {}
            }
        },
        "postState": {
            "0xa94f5374fce5edbc8e2a8697c15331677e6ebf0b": {
                "nonce": "0x01",
                "balance": "0x3635c9adc5de7bbe8e",
                "code": "0x",
                "storage": {}
            },
            "0x1000000000000000000000000000000000001000": {
                "nonce": "0x01",
                "balance": "0x00",
                "code": "0x61003a600081600b8239f35f35738a0a19589531694250d570040a0c4b74576919b890805f14602f57600114602557005b6001805401600155ff5b60015f54015f555f80f3",
                "storage": {}
            },
            "0x1000000000000000000000000000000000001100": {
                "nonce": "0x01",
                "balance": "0x02",
                "code": "0x5f3560017364e2ebd6405af8cb348aec519084d3fff42ebba69190815f14603a5750600114602957005b5f6020816001819481835245f15f80fd5b90505f80525f8060208160018645f1505f525f80602081803045f150316001555f80f3",
                "storage": {
                    "0x01": "0x01"
                }
            },
            "0x6295ee1b4f6dd65047762f924ecd367c17eabf8f": {
                "nonce": "0x02",
                "balance": "0x00",
                "code": "0x",
                "storage": {
                    "0x00": "0x64e2ebd6405af8cb348aec519084d3fff42ebba6"
                }
            },
            "0x64e2ebd6405af8cb348aec519084d3fff42ebba6": {
                "nonce": "0x01",
                "balance": "0x01",
                "code": "0x5f35738a0a19589531694250d570040a0c4b74576919b890805f14602f57600114602557005b6001805401600155ff5b60015f54015f555f80f3",
                "storage": {
                    "0x00": "0x01"
                }
            },
            "0x2adc25665018aa1fe0e6bc666dac8fc2697ff9ba": {
                "nonce": "0x00",
                "balance": "0x0ae06f",
                "code": "0x",
                "storage": {}
            }
        },
        "lastblockhash": "0xfd92efceaeb56fc770ff16246bca8cf0225b6293ca2fae894cb1d9f4d78001c2",
        "config": {
            "network": "Cancun",
            "chainid": "0x01",
            "blobSchedule": {
                "Cancun": {
                    "target": "0x03",
                    "max": "0x06",
                    "baseFeeUpdateFraction": "0x32f0ed"
                }
            }
        },
        "genesisRLP": "0xf9023cf90236a00000000000000000000000000000000000000000000000000000000000000000a01dcc4de8dec75d7aab85b567b6ccd41ad312451b948a7413f0a142fd40d49347940000000000000000000000000000000000000000a00a68083efacc6e6e89c4488c040a43ad99836377cb37ba86de596876c5f27ad7a056e81f171bcc55a6ff8345e692c0f86e5b48e01b996cadc001622fb5e363b421a056e81f171bcc55a6ff8345e692c0f86e5b48e01b996cadc001622fb5e363b421b9010000000000000000000000000000000000000000000000000000000000000000000000000000000000000000000000000000000000000000000000000000000000000000000000000000000000000000000000000000000000000000000000000000000000000000000000000000000000000000000000000000000000000000000000000000000000000000000000000000000000000000000000000000000000000000000000000000000000000000000000000000000000000000000000000000000000000000000000000000000000000000000000000000000000000000000000000000000000000000000000000000000000000000000000000000000000808084055d4a80808000a0000000000000000000000000000000000000000000000000000000000000000088000000000000000007a056e81f171bcc55a6ff8345e692c0f86e5b48e01b996cadc001622fb5e363b4218080a00000000000000000000000000000000000000000000000000000000000000000c0c0c0",
        "blocks": [
            {
                "blockHeader": {
                    "parentHash": "0x14d73051324a5a7851a9c877e995daa81d441bba0cb4afe2939d96e31bc94b2a",
                    "uncleHash": "0x1dcc4de8dec75d7aab85b567b6ccd41ad312451b948a7413f0a142fd40d49347",
                    "coinbase": "0x2adc25665018aa1fe0e6bc666dac8fc2697ff9ba",
                    "stateRoot": "0xa4c49203212d3c2d3a8aa4c2959915671d34825f0458fb497466c5c8ab4e344e",
                    "transactionsTrie": "0x27885effccd21ff5aab3976cc938bc9b1d62039fd9529069a0267931c7e832f6",
                    "receiptTrie": "0x35b6d267cd05c64ff8c0a4c8dc78dece9562d1eead5e1603bad4df21f1099a82",
                    "bloom": "0x00000000000000000000000000000000000000000000000000000000000000000000000000000000000000000000000000000000000000000000000000000000000000000000000000000000000000000000000000000000000000000000000000000000000000000000000000000000000000000000000000000000000000000000000000000000000000000000000000000000000000000000000000000000000000000000000000000000000000000000000000000000000000000000000000000000000000000000000000000000000000000000000000000000000000000000000000000000000000000000000000000000000000000000000000000000",
                    "difficulty": "0x00",
                    "number": "0x01",
                    "gasLimit": "0x055d4a80",
                    "gasUsed": "0x03a025",
                    "timestamp": "0x03e8",
                    "extraData": "0x00",
                    "mixHash": "0x0000000000000000000000000000000000000000000000000000000000000000",
                    "nonce": "0x0000000000000000",
                    "baseFeePerGas": "0x07",
                    "withdrawalsRoot": "0x56e81f171bcc55a6ff8345e692c0f86e5b48e01b996cadc001622fb5e363b421",
                    "blobGasUsed": "0x00",
                    "excessBlobGas": "0x00",
                    "parentBeaconBlockRoot": "0x0000000000000000000000000000000000000000000000000000000000000000",
                    "hash": "0xfd92efceaeb56fc770ff16246bca8cf0225b6293ca2fae894cb1d9f4d78001c2"
                },
                "transactions": [
                    {
                        "type": "0x00",
                        "chainId": "0x01",
                        "nonce": "0x00",
                        "gasPrice": "0x0a",
                        "gasLimit": "0x07a120",
                        "value": "0x00",
                        "data": "0x6045600060007310000000000000000000000000000000000010003c604560006000f06000556000600060006000600073100000000000000000000000000000000000110045f1",
                        "v": "0x25",
                        "r": "0x04dcb7b4e5f7824020d720215f11a7b19ee9542c5f6792a7b43ba897a0b7d76f",
                        "s": "0x12a5724c15aec5a5f762334c1adbbd96f817b42e16b411ebf40b166e1e20fc2a",
                        "sender": "0xa94f5374fce5edbc8e2a8697c15331677e6ebf0b",
                        "to": ""
                    }
                ],
                "uncleHeaders": [],
                "withdrawals": [],
                "rlp": "0xf902d8f9023ba014d73051324a5a7851a9c877e995daa81d441bba0cb4afe2939d96e31bc94b2aa01dcc4de8dec75d7aab85b567b6ccd41ad312451b948a7413f0a142fd40d49347942adc25665018aa1fe0e6bc666dac8fc2697ff9baa0a4c49203212d3c2d3a8aa4c2959915671d34825f0458fb497466c5c8ab4e344ea027885effccd21ff5aab3976cc938bc9b1d62039fd9529069a0267931c7e832f6a035b6d267cd05c64ff8c0a4c8dc78dece9562d1eead5e1603bad4df21f1099a82b9010000000000000000000000000000000000000000000000000000000000000000000000000000000000000000000000000000000000000000000000000000000000000000000000000000000000000000000000000000000000000000000000000000000000000000000000000000000000000000000000000000000000000000000000000000000000000000000000000000000000000000000000000000000000000000000000000000000000000000000000000000000000000000000000000000000000000000000000000000000000000000000000000000000000000000000000000000000000000000000000000000000000000000000000000000000000800184055d4a808303a0258203e800a0000000000000000000000000000000000000000000000000000000000000000088000000000000000007a056e81f171bcc55a6ff8345e692c0f86e5b48e01b996cadc001622fb5e363b4218080a00000000000000000000000000000000000000000000000000000000000000000f896f894800a8307a1208080b8476045600060007310000000000000000000000000000000000010003c604560006000f06000556000600060006000600073100000000000000000000000000000000000110045f125a004dcb7b4e5f7824020d720215f11a7b19ee9542c5f6792a7b43ba897a0b7d76fa012a5724c15aec5a5f762334c1adbbd96f817b42e16b411ebf40b166e1e20fc2ac0c0",
                "blocknumber": "1"
            }
        ],
        "sealEngine": "NoProof",
        "_info": {
            "hash": "0x8a0445c2bcefc15e8559947db5bd469ef1dfc739d02e0e353fc4580323c7080c",
            "comment": "`execution-spec-tests` generated test",
            "filling-transition-tool": "ethereum-spec-evm-resolver 0.0.5",
            "description": "Given:\n      Contract A which has methods to receive balance and selfdestruct,\n      and was created in current tx.\n\n    Test the following call sequence:\n      Transfer value to A and call A.selfdestruct. Recurse into a new call\n      from transfers value to A, calls A.selfdestruct, and reverts.",
            "url": "https://github.com/ethereum/execution-spec-tests/blob/e78565158bad26de99c70138163d49321a6acc84/tests/cancun/eip6780_selfdestruct/test_selfdestruct_revert.py#L316",
            "fixture-format": "blockchain_test",
            "reference-spec": "https://github.com/ethereum/EIPs/blob/master/EIPS/eip-6780.md",
            "reference-spec-version": "1b6a0e94cc47e859b9866e570391cf37dc55059a",
            "eels-resolution": {
                "git-url": "https://github.com/ethereum/execution-specs.git",
                "branch": "forks/bpos",
                "commit": "7aacb2c54111391af5e98c505d5010b5698a770f"
            }
        }
    },
    "tests/cancun/eip6780_selfdestruct/test_selfdestruct_revert.py::test_selfdestruct_created_in_same_tx_with_revert[fork_Cancun-blockchain_test_from_state_test-outer_selfdestruct_after_inner_call-same_tx]": {
        "network": "Cancun",
        "genesisBlockHeader": {
            "parentHash": "0x0000000000000000000000000000000000000000000000000000000000000000",
            "uncleHash": "0x1dcc4de8dec75d7aab85b567b6ccd41ad312451b948a7413f0a142fd40d49347",
            "coinbase": "0x0000000000000000000000000000000000000000",
            "stateRoot": "0x59dbc162581c689cfaeb57d8b2c9fecf054e7567de32d90dcfb233352b2c2dea",
            "transactionsTrie": "0x56e81f171bcc55a6ff8345e692c0f86e5b48e01b996cadc001622fb5e363b421",
            "receiptTrie": "0x56e81f171bcc55a6ff8345e692c0f86e5b48e01b996cadc001622fb5e363b421",
            "bloom": "0x00000000000000000000000000000000000000000000000000000000000000000000000000000000000000000000000000000000000000000000000000000000000000000000000000000000000000000000000000000000000000000000000000000000000000000000000000000000000000000000000000000000000000000000000000000000000000000000000000000000000000000000000000000000000000000000000000000000000000000000000000000000000000000000000000000000000000000000000000000000000000000000000000000000000000000000000000000000000000000000000000000000000000000000000000000000",
            "difficulty": "0x00",
            "number": "0x00",
            "gasLimit": "0x055d4a80",
            "gasUsed": "0x00",
            "timestamp": "0x00",
            "extraData": "0x00",
            "mixHash": "0x0000000000000000000000000000000000000000000000000000000000000000",
            "nonce": "0x0000000000000000",
            "baseFeePerGas": "0x07",
            "withdrawalsRoot": "0x56e81f171bcc55a6ff8345e692c0f86e5b48e01b996cadc001622fb5e363b421",
            "blobGasUsed": "0x00",
            "excessBlobGas": "0x00",
            "parentBeaconBlockRoot": "0x0000000000000000000000000000000000000000000000000000000000000000",
            "hash": "0x1934891485ce90ee8fd2a262316b6feb4426402615c687c4d012be5ccc8088d0"
        },
        "pre": {
            "0xa94f5374fce5edbc8e2a8697c15331677e6ebf0b": {
                "nonce": "0x00",
                "balance": "0x3635c9adc5dea00000",
                "code": "0x",
                "storage": {}
            },
            "0x1000000000000000000000000000000000001000": {
                "nonce": "0x01",
                "balance": "0x00",
                "code": "0x61003a600081600b8239f35f35738a0a19589531694250d570040a0c4b74576919b890805f14602f57600114602557005b6001805401600155ff5b60015f54015f555f80f3",
                "storage": {}
            },
            "0x1000000000000000000000000000000000001100": {
                "nonce": "0x01",
                "balance": "0x03",
                "code": "0x5f3560017364e2ebd6405af8cb348aec519084d3fff42ebba69190815f14603a5750600114602957005b5f6020816001819481835245f15f80fd5b5f602081600186829583805283808681868645f150835282808581803045f1508031825581835245f15f80f3",
                "storage": {}
            }
        },
        "postState": {
            "0xa94f5374fce5edbc8e2a8697c15331677e6ebf0b": {
                "nonce": "0x01",
                "balance": "0x3635c9adc5de72586c",
                "code": "0x",
                "storage": {}
            },
            "0x1000000000000000000000000000000000001000": {
                "nonce": "0x01",
                "balance": "0x00",
                "code": "0x61003a600081600b8239f35f35738a0a19589531694250d570040a0c4b74576919b890805f14602f57600114602557005b6001805401600155ff5b60015f54015f555f80f3",
                "storage": {}
            },
            "0x1000000000000000000000000000000000001100": {
                "nonce": "0x01",
                "balance": "0x01",
                "code": "0x5f3560017364e2ebd6405af8cb348aec519084d3fff42ebba69190815f14603a5750600114602957005b5f6020816001819481835245f15f80fd5b5f602081600186829583805283808681868645f150835282808581803045f1508031825581835245f15f80f3",
                "storage": {
                    "0x01": "0x01"
                }
            },
            "0x6295ee1b4f6dd65047762f924ecd367c17eabf8f": {
                "nonce": "0x02",
                "balance": "0x00",
                "code": "0x",
                "storage": {
                    "0x00": "0x64e2ebd6405af8cb348aec519084d3fff42ebba6"
                }
            },
            "0x8a0a19589531694250d570040a0c4b74576919b8": {
                "nonce": "0x00",
                "balance": "0x02",
                "code": "0x",
                "storage": {}
            },
            "0x2adc25665018aa1fe0e6bc666dac8fc2697ff9ba": {
                "nonce": "0x00",
                "balance": "0x0db246",
                "code": "0x",
                "storage": {}
            }
        },
        "lastblockhash": "0x36554639e51c523262449e887fa03ea58cd852dbe281552586f1ebd9d41e3e3f",
        "config": {
            "network": "Cancun",
            "chainid": "0x01",
            "blobSchedule": {
                "Cancun": {
                    "target": "0x03",
                    "max": "0x06",
                    "baseFeeUpdateFraction": "0x32f0ed"
                }
            }
        },
        "genesisRLP": "0xf9023cf90236a00000000000000000000000000000000000000000000000000000000000000000a01dcc4de8dec75d7aab85b567b6ccd41ad312451b948a7413f0a142fd40d49347940000000000000000000000000000000000000000a059dbc162581c689cfaeb57d8b2c9fecf054e7567de32d90dcfb233352b2c2deaa056e81f171bcc55a6ff8345e692c0f86e5b48e01b996cadc001622fb5e363b421a056e81f171bcc55a6ff8345e692c0f86e5b48e01b996cadc001622fb5e363b421b9010000000000000000000000000000000000000000000000000000000000000000000000000000000000000000000000000000000000000000000000000000000000000000000000000000000000000000000000000000000000000000000000000000000000000000000000000000000000000000000000000000000000000000000000000000000000000000000000000000000000000000000000000000000000000000000000000000000000000000000000000000000000000000000000000000000000000000000000000000000000000000000000000000000000000000000000000000000000000000000000000000000000000000000000000000000000808084055d4a80808000a0000000000000000000000000000000000000000000000000000000000000000088000000000000000007a056e81f171bcc55a6ff8345e692c0f86e5b48e01b996cadc001622fb5e363b4218080a00000000000000000000000000000000000000000000000000000000000000000c0c0c0",
        "blocks": [
            {
                "blockHeader": {
                    "parentHash": "0x1934891485ce90ee8fd2a262316b6feb4426402615c687c4d012be5ccc8088d0",
                    "uncleHash": "0x1dcc4de8dec75d7aab85b567b6ccd41ad312451b948a7413f0a142fd40d49347",
                    "coinbase": "0x2adc25665018aa1fe0e6bc666dac8fc2697ff9ba",
                    "stateRoot": "0x15f519c65392ba8b663efabfd5c6df5cf3addf3590299d446a1cecb7fa63d82f",
                    "transactionsTrie": "0x27885effccd21ff5aab3976cc938bc9b1d62039fd9529069a0267931c7e832f6",
                    "receiptTrie": "0x2afb133f69d0e970f3676b5f60d3e401c54874ecc2713370950668530bc2879a",
                    "bloom": "0x00000000000000000000000000000000000000000000000000000000000000000000000000000000000000000000000000000000000000000000000000000000000000000000000000000000000000000000000000000000000000000000000000000000000000000000000000000000000000000000000000000000000000000000000000000000000000000000000000000000000000000000000000000000000000000000000000000000000000000000000000000000000000000000000000000000000000000000000000000000000000000000000000000000000000000000000000000000000000000000000000000000000000000000000000000000",
                    "difficulty": "0x00",
                    "number": "0x01",
                    "gasLimit": "0x055d4a80",
                    "gasUsed": "0x0490c2",
                    "timestamp": "0x03e8",
                    "extraData": "0x00",
                    "mixHash": "0x0000000000000000000000000000000000000000000000000000000000000000",
                    "nonce": "0x0000000000000000",
                    "baseFeePerGas": "0x07",
                    "withdrawalsRoot": "0x56e81f171bcc55a6ff8345e692c0f86e5b48e01b996cadc001622fb5e363b421",
                    "blobGasUsed": "0x00",
                    "excessBlobGas": "0x00",
                    "parentBeaconBlockRoot": "0x0000000000000000000000000000000000000000000000000000000000000000",
                    "hash": "0x36554639e51c523262449e887fa03ea58cd852dbe281552586f1ebd9d41e3e3f"
                },
                "transactions": [
                    {
                        "type": "0x00",
                        "chainId": "0x01",
                        "nonce": "0x00",
                        "gasPrice": "0x0a",
                        "gasLimit": "0x07a120",
                        "value": "0x00",
                        "data": "0x6045600060007310000000000000000000000000000000000010003c604560006000f06000556000600060006000600073100000000000000000000000000000000000110045f1",
                        "v": "0x25",
                        "r": "0x04dcb7b4e5f7824020d720215f11a7b19ee9542c5f6792a7b43ba897a0b7d76f",
                        "s": "0x12a5724c15aec5a5f762334c1adbbd96f817b42e16b411ebf40b166e1e20fc2a",
                        "sender": "0xa94f5374fce5edbc8e2a8697c15331677e6ebf0b",
                        "to": ""
                    }
                ],
                "uncleHeaders": [],
                "withdrawals": [],
                "rlp": "0xf902d8f9023ba01934891485ce90ee8fd2a262316b6feb4426402615c687c4d012be5ccc8088d0a01dcc4de8dec75d7aab85b567b6ccd41ad312451b948a7413f0a142fd40d49347942adc25665018aa1fe0e6bc666dac8fc2697ff9baa015f519c65392ba8b663efabfd5c6df5cf3addf3590299d446a1cecb7fa63d82fa027885effccd21ff5aab3976cc938bc9b1d62039fd9529069a0267931c7e832f6a02afb133f69d0e970f3676b5f60d3e401c54874ecc2713370950668530bc2879ab9010000000000000000000000000000000000000000000000000000000000000000000000000000000000000000000000000000000000000000000000000000000000000000000000000000000000000000000000000000000000000000000000000000000000000000000000000000000000000000000000000000000000000000000000000000000000000000000000000000000000000000000000000000000000000000000000000000000000000000000000000000000000000000000000000000000000000000000000000000000000000000000000000000000000000000000000000000000000000000000000000000000000000000000000000000000000800184055d4a80830490c28203e800a0000000000000000000000000000000000000000000000000000000000000000088000000000000000007a056e81f171bcc55a6ff8345e692c0f86e5b48e01b996cadc001622fb5e363b4218080a00000000000000000000000000000000000000000000000000000000000000000f896f894800a8307a1208080b8476045600060007310000000000000000000000000000000000010003c604560006000f06000556000600060006000600073100000000000000000000000000000000000110045f125a004dcb7b4e5f7824020d720215f11a7b19ee9542c5f6792a7b43ba897a0b7d76fa012a5724c15aec5a5f762334c1adbbd96f817b42e16b411ebf40b166e1e20fc2ac0c0",
                "blocknumber": "1"
            }
        ],
        "sealEngine": "NoProof",
        "_info": {
            "hash": "0x125db0193aab8857e19bcab3d1b74e29ead4524148df72e5e64dbd5d6372cf68",
            "comment": "`execution-spec-tests` generated test",
            "filling-transition-tool": "ethereum-spec-evm-resolver 0.0.5",
            "description": "Given:\n      Contract A which has methods to receive balance and selfdestruct,\n      and was created in current tx.\n\n    Test the following call sequence:\n      Transfer value to A and call A.selfdestruct. Recurse into a new call\n      from transfers value to A, calls A.selfdestruct, and reverts.",
            "url": "https://github.com/ethereum/execution-spec-tests/blob/e78565158bad26de99c70138163d49321a6acc84/tests/cancun/eip6780_selfdestruct/test_selfdestruct_revert.py#L316",
            "fixture-format": "blockchain_test",
            "reference-spec": "https://github.com/ethereum/EIPs/blob/master/EIPS/eip-6780.md",
            "reference-spec-version": "1b6a0e94cc47e859b9866e570391cf37dc55059a",
            "eels-resolution": {
                "git-url": "https://github.com/ethereum/execution-specs.git",
                "branch": "forks/bpos",
                "commit": "7aacb2c54111391af5e98c505d5010b5698a770f"
            }
        }
    },
    "tests/cancun/eip6780_selfdestruct/test_selfdestruct_revert.py::test_selfdestruct_created_in_same_tx_with_revert[fork_Cancun-blockchain_test_from_state_test-outer_selfdestruct_before_inner_call-same_tx]": {
        "network": "Cancun",
        "genesisBlockHeader": {
            "parentHash": "0x0000000000000000000000000000000000000000000000000000000000000000",
            "uncleHash": "0x1dcc4de8dec75d7aab85b567b6ccd41ad312451b948a7413f0a142fd40d49347",
            "coinbase": "0x0000000000000000000000000000000000000000",
            "stateRoot": "0x72ea889d246ea08440fe9cf1107a875e206432546ad8278ddb7d2e1120f1e44e",
            "transactionsTrie": "0x56e81f171bcc55a6ff8345e692c0f86e5b48e01b996cadc001622fb5e363b421",
            "receiptTrie": "0x56e81f171bcc55a6ff8345e692c0f86e5b48e01b996cadc001622fb5e363b421",
            "bloom": "0x00000000000000000000000000000000000000000000000000000000000000000000000000000000000000000000000000000000000000000000000000000000000000000000000000000000000000000000000000000000000000000000000000000000000000000000000000000000000000000000000000000000000000000000000000000000000000000000000000000000000000000000000000000000000000000000000000000000000000000000000000000000000000000000000000000000000000000000000000000000000000000000000000000000000000000000000000000000000000000000000000000000000000000000000000000000",
            "difficulty": "0x00",
            "number": "0x00",
            "gasLimit": "0x055d4a80",
            "gasUsed": "0x00",
            "timestamp": "0x00",
            "extraData": "0x00",
            "mixHash": "0x0000000000000000000000000000000000000000000000000000000000000000",
            "nonce": "0x0000000000000000",
            "baseFeePerGas": "0x07",
            "withdrawalsRoot": "0x56e81f171bcc55a6ff8345e692c0f86e5b48e01b996cadc001622fb5e363b421",
            "blobGasUsed": "0x00",
            "excessBlobGas": "0x00",
            "parentBeaconBlockRoot": "0x0000000000000000000000000000000000000000000000000000000000000000",
            "hash": "0x66fd2da7b81eb32253b76c79124c3f77cdcbab9c6677a281266596d983ab3691"
        },
        "pre": {
            "0xa94f5374fce5edbc8e2a8697c15331677e6ebf0b": {
                "nonce": "0x00",
                "balance": "0x3635c9adc5dea00000",
                "code": "0x",
                "storage": {}
            },
            "0x1000000000000000000000000000000000001000": {
                "nonce": "0x01",
                "balance": "0x00",
                "code": "0x61003a600081600b8239f35f35738a0a19589531694250d570040a0c4b74576919b890805f14602f57600114602557005b6001805401600155ff5b60015f54015f555f80f3",
                "storage": {}
            },
            "0x1000000000000000000000000000000000001100": {
                "nonce": "0x01",
                "balance": "0x03",
                "code": "0x5f3560017364e2ebd6405af8cb348aec519084d3fff42ebba69190815f14603a5750600114602957005b5f6020816001819481835245f15f80fd5b905060015f525f8060208160018645f1505f80525f8060208160018645f1505f525f80602081803045f150316001555f80f3",
                "storage": {}
            }
        },
        "postState": {
            "0xa94f5374fce5edbc8e2a8697c15331677e6ebf0b": {
                "nonce": "0x01",
                "balance": "0x3635c9adc5de79e62c",
                "code": "0x",
                "storage": {}
            },
            "0x1000000000000000000000000000000000001000": {
                "nonce": "0x01",
                "balance": "0x00",
                "code": "0x61003a600081600b8239f35f35738a0a19589531694250d570040a0c4b74576919b890805f14602f57600114602557005b6001805401600155ff5b60015f54015f555f80f3",
                "storage": {}
            },
            "0x1000000000000000000000000000000000001100": {
                "nonce": "0x01",
                "balance": "0x01",
                "code": "0x5f3560017364e2ebd6405af8cb348aec519084d3fff42ebba69190815f14603a5750600114602957005b5f6020816001819481835245f15f80fd5b905060015f525f8060208160018645f1505f80525f8060208160018645f1505f525f80602081803045f150316001555f80f3",
                "storage": {
                    "0x01": "0x01"
                }
            },
            "0x6295ee1b4f6dd65047762f924ecd367c17eabf8f": {
                "nonce": "0x02",
                "balance": "0x00",
                "code": "0x",
                "storage": {
                    "0x00": "0x64e2ebd6405af8cb348aec519084d3fff42ebba6"
                }
            },
            "0x8a0a19589531694250d570040a0c4b74576919b8": {
                "nonce": "0x00",
                "balance": "0x01",
                "code": "0x",
                "storage": {}
            },
            "0x2adc25665018aa1fe0e6bc666dac8fc2697ff9ba": {
                "nonce": "0x00",
                "balance": "0x0b6e26",
                "code": "0x",
                "storage": {}
            }
        },
        "lastblockhash": "0xbb12e9868b7520f837594d5bd866e3df19c5866ec7b2d1e3568d092505d5830a",
        "config": {
            "network": "Cancun",
            "chainid": "0x01",
            "blobSchedule": {
                "Cancun": {
                    "target": "0x03",
                    "max": "0x06",
                    "baseFeeUpdateFraction": "0x32f0ed"
                }
            }
        },
        "genesisRLP": "0xf9023cf90236a00000000000000000000000000000000000000000000000000000000000000000a01dcc4de8dec75d7aab85b567b6ccd41ad312451b948a7413f0a142fd40d49347940000000000000000000000000000000000000000a072ea889d246ea08440fe9cf1107a875e206432546ad8278ddb7d2e1120f1e44ea056e81f171bcc55a6ff8345e692c0f86e5b48e01b996cadc001622fb5e363b421a056e81f171bcc55a6ff8345e692c0f86e5b48e01b996cadc001622fb5e363b421b9010000000000000000000000000000000000000000000000000000000000000000000000000000000000000000000000000000000000000000000000000000000000000000000000000000000000000000000000000000000000000000000000000000000000000000000000000000000000000000000000000000000000000000000000000000000000000000000000000000000000000000000000000000000000000000000000000000000000000000000000000000000000000000000000000000000000000000000000000000000000000000000000000000000000000000000000000000000000000000000000000000000000000000000000000000000000808084055d4a80808000a0000000000000000000000000000000000000000000000000000000000000000088000000000000000007a056e81f171bcc55a6ff8345e692c0f86e5b48e01b996cadc001622fb5e363b4218080a00000000000000000000000000000000000000000000000000000000000000000c0c0c0",
        "blocks": [
            {
                "blockHeader": {
                    "parentHash": "0x66fd2da7b81eb32253b76c79124c3f77cdcbab9c6677a281266596d983ab3691",
                    "uncleHash": "0x1dcc4de8dec75d7aab85b567b6ccd41ad312451b948a7413f0a142fd40d49347",
                    "coinbase": "0x2adc25665018aa1fe0e6bc666dac8fc2697ff9ba",
                    "stateRoot": "0x6350eba19f79dea84e114de74566d758b0dd49c62feb061e9cafae7b08c155c1",
                    "transactionsTrie": "0x27885effccd21ff5aab3976cc938bc9b1d62039fd9529069a0267931c7e832f6",
                    "receiptTrie": "0x061596b678a253066852ad1c2269c4b3386444eb1bd4ace0936bd01bfdf226be",
                    "bloom": "0x00000000000000000000000000000000000000000000000000000000000000000000000000000000000000000000000000000000000000000000000000000000000000000000000000000000000000000000000000000000000000000000000000000000000000000000000000000000000000000000000000000000000000000000000000000000000000000000000000000000000000000000000000000000000000000000000000000000000000000000000000000000000000000000000000000000000000000000000000000000000000000000000000000000000000000000000000000000000000000000000000000000000000000000000000000000",
                    "difficulty": "0x00",
                    "number": "0x01",
                    "gasLimit": "0x055d4a80",
                    "gasUsed": "0x03cf62",
                    "timestamp": "0x03e8",
                    "extraData": "0x00",
                    "mixHash": "0x0000000000000000000000000000000000000000000000000000000000000000",
                    "nonce": "0x0000000000000000",
                    "baseFeePerGas": "0x07",
                    "withdrawalsRoot": "0x56e81f171bcc55a6ff8345e692c0f86e5b48e01b996cadc001622fb5e363b421",
                    "blobGasUsed": "0x00",
                    "excessBlobGas": "0x00",
                    "parentBeaconBlockRoot": "0x0000000000000000000000000000000000000000000000000000000000000000",
                    "hash": "0xbb12e9868b7520f837594d5bd866e3df19c5866ec7b2d1e3568d092505d5830a"
                },
                "transactions": [
                    {
                        "type": "0x00",
                        "chainId": "0x01",
                        "nonce": "0x00",
                        "gasPrice": "0x0a",
                        "gasLimit": "0x07a120",
                        "value": "0x00",
                        "data": "0x6045600060007310000000000000000000000000000000000010003c604560006000f06000556000600060006000600073100000000000000000000000000000000000110045f1",
                        "v": "0x25",
                        "r": "0x04dcb7b4e5f7824020d720215f11a7b19ee9542c5f6792a7b43ba897a0b7d76f",
                        "s": "0x12a5724c15aec5a5f762334c1adbbd96f817b42e16b411ebf40b166e1e20fc2a",
                        "sender": "0xa94f5374fce5edbc8e2a8697c15331677e6ebf0b",
                        "to": ""
                    }
                ],
                "uncleHeaders": [],
                "withdrawals": [],
                "rlp": "0xf902d8f9023ba066fd2da7b81eb32253b76c79124c3f77cdcbab9c6677a281266596d983ab3691a01dcc4de8dec75d7aab85b567b6ccd41ad312451b948a7413f0a142fd40d49347942adc25665018aa1fe0e6bc666dac8fc2697ff9baa06350eba19f79dea84e114de74566d758b0dd49c62feb061e9cafae7b08c155c1a027885effccd21ff5aab3976cc938bc9b1d62039fd9529069a0267931c7e832f6a0061596b678a253066852ad1c2269c4b3386444eb1bd4ace0936bd01bfdf226beb9010000000000000000000000000000000000000000000000000000000000000000000000000000000000000000000000000000000000000000000000000000000000000000000000000000000000000000000000000000000000000000000000000000000000000000000000000000000000000000000000000000000000000000000000000000000000000000000000000000000000000000000000000000000000000000000000000000000000000000000000000000000000000000000000000000000000000000000000000000000000000000000000000000000000000000000000000000000000000000000000000000000000000000000000000000000000800184055d4a808303cf628203e800a0000000000000000000000000000000000000000000000000000000000000000088000000000000000007a056e81f171bcc55a6ff8345e692c0f86e5b48e01b996cadc001622fb5e363b4218080a00000000000000000000000000000000000000000000000000000000000000000f896f894800a8307a1208080b8476045600060007310000000000000000000000000000000000010003c604560006000f06000556000600060006000600073100000000000000000000000000000000000110045f125a004dcb7b4e5f7824020d720215f11a7b19ee9542c5f6792a7b43ba897a0b7d76fa012a5724c15aec5a5f762334c1adbbd96f817b42e16b411ebf40b166e1e20fc2ac0c0",
                "blocknumber": "1"
            }
        ],
        "sealEngine": "NoProof",
        "_info": {
            "hash": "0x25d390109e98fcf2efc470d591917a42b68658fb9986a4c6b4c338aa3c08a8d7",
            "comment": "`execution-spec-tests` generated test",
            "filling-transition-tool": "ethereum-spec-evm-resolver 0.0.5",
            "description": "Given:\n      Contract A which has methods to receive balance and selfdestruct,\n      and was created in current tx.\n\n    Test the following call sequence:\n      Transfer value to A and call A.selfdestruct. Recurse into a new call\n      from transfers value to A, calls A.selfdestruct, and reverts.",
            "url": "https://github.com/ethereum/execution-spec-tests/blob/e78565158bad26de99c70138163d49321a6acc84/tests/cancun/eip6780_selfdestruct/test_selfdestruct_revert.py#L316",
            "fixture-format": "blockchain_test",
            "reference-spec": "https://github.com/ethereum/EIPs/blob/master/EIPS/eip-6780.md",
            "reference-spec-version": "1b6a0e94cc47e859b9866e570391cf37dc55059a",
            "eels-resolution": {
                "git-url": "https://github.com/ethereum/execution-specs.git",
                "branch": "forks/bpos",
                "commit": "7aacb2c54111391af5e98c505d5010b5698a770f"
            }
        }
    }
}