{
    "tests/frontier/examples/test_block_intermediate_state.py::test_block_intermediate_state[fork_Frontier-blockchain_test]": {
        "network": "Frontier",
        "genesisBlockHeader": {
            "parentHash": "0x0000000000000000000000000000000000000000000000000000000000000000",
            "uncleHash": "0x1dcc4de8dec75d7aab85b567b6ccd41ad312451b948a7413f0a142fd40d49347",
            "coinbase": "0x0000000000000000000000000000000000000000",
            "stateRoot": "0x70c42824108fafccadbfce71e6e22660c4fad89be18be324cd15ef351969a8c8",
            "transactionsTrie": "0x56e81f171bcc55a6ff8345e692c0f86e5b48e01b996cadc001622fb5e363b421",
            "receiptTrie": "0x56e81f171bcc55a6ff8345e692c0f86e5b48e01b996cadc001622fb5e363b421",
            "bloom": "0x00000000000000000000000000000000000000000000000000000000000000000000000000000000000000000000000000000000000000000000000000000000000000000000000000000000000000000000000000000000000000000000000000000000000000000000000000000000000000000000000000000000000000000000000000000000000000000000000000000000000000000000000000000000000000000000000000000000000000000000000000000000000000000000000000000000000000000000000000000000000000000000000000000000000000000000000000000000000000000000000000000000000000000000000000000000",
            "difficulty": "0x020000",
            "number": "0x00",
            "gasLimit": "0x055d4a80",
            "gasUsed": "0x00",
            "timestamp": "0x00",
            "extraData": "0x00",
            "mixHash": "0x0000000000000000000000000000000000000000000000000000000000000000",
            "nonce": "0x0000000000000000",
            "hash": "0xa5ca108a8e56e864c78f5e2f52478b8bc6e8cb30440cee24a0919d04c8ed2afc"
        },
        "pre": {
            "0xa94f5374fce5edbc8e2a8697c15331677e6ebf0b": {
                "nonce": "0x00",
                "balance": "0x3635c9adc5dea00000",
                "code": "0x",
                "storage": {}
            }
        },
        "postState": {
            "0xa94f5374fce5edbc8e2a8697c15331677e6ebf0b": {
                "nonce": "0x02",
                "balance": "0x3635c9adc5de999760",
                "code": "0x",
                "storage": {}
            },
            "0x6295ee1b4f6dd65047762f924ecd367c17eabf8f": {
                "nonce": "0x00",
                "balance": "0x00",
                "code": "0x",
                "storage": {}
            },
            "0x2adc25665018aa1fe0e6bc666dac8fc2697ff9ba": {
                "nonce": "0x00",
                "balance": "0xd02ab486cee268a0",
                "code": "0x",
                "storage": {}
            },
            "0xec0e71ad0a90ffe1909d27dac207f7680abba42d": {
                "nonce": "0x00",
                "balance": "0x00",
                "code": "0x",
                "storage": {}
            }
        },
        "lastblockhash": "0x7408218579543e3d326b32e9ea9249d15d8fd207346389586ae07b2ad8b3d403",
        "config": {
            "network": "Frontier",
            "chainid": "0x01"
        },
        "genesisRLP": "0xf901f9f901f4a00000000000000000000000000000000000000000000000000000000000000000a01dcc4de8dec75d7aab85b567b6ccd41ad312451b948a7413f0a142fd40d49347940000000000000000000000000000000000000000a070c42824108fafccadbfce71e6e22660c4fad89be18be324cd15ef351969a8c8a056e81f171bcc55a6ff8345e692c0f86e5b48e01b996cadc001622fb5e363b421a056e81f171bcc55a6ff8345e692c0f86e5b48e01b996cadc001622fb5e363b421b9010000000000000000000000000000000000000000000000000000000000000000000000000000000000000000000000000000000000000000000000000000000000000000000000000000000000000000000000000000000000000000000000000000000000000000000000000000000000000000000000000000000000000000000000000000000000000000000000000000000000000000000000000000000000000000000000000000000000000000000000000000000000000000000000000000000000000000000000000000000000000000000000000000000000000000000000000000000000000000000000000000000000000000000000000000000000830200008084055d4a80808000a00000000000000000000000000000000000000000000000000000000000000000880000000000000000c0c0",
        "blocks": [
            {
                "blockHeader": {
                    "parentHash": "0xa5ca108a8e56e864c78f5e2f52478b8bc6e8cb30440cee24a0919d04c8ed2afc",
                    "uncleHash": "0x1dcc4de8dec75d7aab85b567b6ccd41ad312451b948a7413f0a142fd40d49347",
                    "coinbase": "0x2adc25665018aa1fe0e6bc666dac8fc2697ff9ba",
                    "stateRoot": "0x099c0db71853e4b31cdbde4a6dee36e98becfb16e7b6bfd1da4c602a18165cba",
                    "transactionsTrie": "0x1df304ff88c97dc68663944ccd4499defb653696c807252449bce830c3e35d3c",
                    "receiptTrie": "0x91eabb31e4b06b62b264444a19f6b7d3a3f7f1dbef5c1983c0b72d14ddc9ff97",
                    "bloom": "0x00000000000000000000000000000000000000000000000000000000000000000000000000000000000000000000000000000000000000000000000000000000000000000000000000000000000000000000000000000000000000000000000000000000000000000000000000000000000000000000000000000000000000000000000000000000000000000000000000000000000000000000000000000000000000000000000000000000000000000000000000000000000000000000000000000000000000000000000000000000000000000000000000000000000000000000000000000000000000000000000000000000000000000000000000000000",
                    "difficulty": "0x020040",
                    "number": "0x01",
                    "gasLimit": "0x055d4a80",
                    "gasUsed": "0x5208",
                    "timestamp": "0x0c",
                    "extraData": "0x",
                    "mixHash": "0x0000000000000000000000000000000000000000000000000000000000000000",
                    "nonce": "0x0000000000000000",
                    "hash": "0x24abc6ede6f35e4977fbc2c43c8a7c0c7609b5224fb02e31e84246e824b8426a"
                },
                "transactions": [
                    {
                        "type": "0x00",
                        "chainId": "0x01",
                        "nonce": "0x00",
                        "gasPrice": "0x0a",
                        "gasLimit": "0x0186a0",
                        "value": "0x00",
                        "data": "0x",
                        "v": "0x1b",
                        "r": "0x4a70e36753e51ecbabb12ffefb365a5d70ddfc104dfbd752f26fb43bb03577fe",
                        "s": "0x06b0526056d8c5dd80222b72cc3f0860f38750ca98d3261b29ec6bdc5833d9d1",
                        "sender": "0xa94f5374fce5edbc8e2a8697c15331677e6ebf0b",
                        "to": ""
                    }
                ],
                "uncleHeaders": [],
                "rlp": "0xf9024af901f6a0a5ca108a8e56e864c78f5e2f52478b8bc6e8cb30440cee24a0919d04c8ed2afca01dcc4de8dec75d7aab85b567b6ccd41ad312451b948a7413f0a142fd40d49347942adc25665018aa1fe0e6bc666dac8fc2697ff9baa0099c0db71853e4b31cdbde4a6dee36e98becfb16e7b6bfd1da4c602a18165cbaa01df304ff88c97dc68663944ccd4499defb653696c807252449bce830c3e35d3ca091eabb31e4b06b62b264444a19f6b7d3a3f7f1dbef5c1983c0b72d14ddc9ff97b9010000000000000000000000000000000000000000000000000000000000000000000000000000000000000000000000000000000000000000000000000000000000000000000000000000000000000000000000000000000000000000000000000000000000000000000000000000000000000000000000000000000000000000000000000000000000000000000000000000000000000000000000000000000000000000000000000000000000000000000000000000000000000000000000000000000000000000000000000000000000000000000000000000000000000000000000000000000000000000000000000000000000000000000000000000000000830200400184055d4a808252080c80a00000000000000000000000000000000000000000000000000000000000000000880000000000000000f84ef84c800a830186a08080801ba04a70e36753e51ecbabb12ffefb365a5d70ddfc104dfbd752f26fb43bb03577fea006b0526056d8c5dd80222b72cc3f0860f38750ca98d3261b29ec6bdc5833d9d1c0",
                "blocknumber": "1"
            },
            {
                "blockHeader": {
                    "parentHash": "0x24abc6ede6f35e4977fbc2c43c8a7c0c7609b5224fb02e31e84246e824b8426a",
                    "uncleHash": "0x1dcc4de8dec75d7aab85b567b6ccd41ad312451b948a7413f0a142fd40d49347",
                    "coinbase": "0x2adc25665018aa1fe0e6bc666dac8fc2697ff9ba",
                    "stateRoot": "0x2a7be4c025aed057ca0a9a26749a3ca6638ffb10b3babed153d0f40946a5e874",
                    "transactionsTrie": "0x56e81f171bcc55a6ff8345e692c0f86e5b48e01b996cadc001622fb5e363b421",
                    "receiptTrie": "0x56e81f171bcc55a6ff8345e692c0f86e5b48e01b996cadc001622fb5e363b421",
                    "bloom": "0x00000000000000000000000000000000000000000000000000000000000000000000000000000000000000000000000000000000000000000000000000000000000000000000000000000000000000000000000000000000000000000000000000000000000000000000000000000000000000000000000000000000000000000000000000000000000000000000000000000000000000000000000000000000000000000000000000000000000000000000000000000000000000000000000000000000000000000000000000000000000000000000000000000000000000000000000000000000000000000000000000000000000000000000000000000000",
                    "difficulty": "0x020080",
                    "number": "0x02",
                    "gasLimit": "0x055d4a80",
                    "gasUsed": "0x00",
                    "timestamp": "0x18",
                    "extraData": "0x",
                    "mixHash": "0x0000000000000000000000000000000000000000000000000000000000000000",
                    "nonce": "0x0000000000000000",
                    "hash": "0x391174ba1dddbe7c3e0cb81a4092f554fa0787bf737f549a3adf4739ede21835"
                },
                "transactions": [],
                "uncleHeaders": [],
                "rlp": "0xf901f9f901f4a024abc6ede6f35e4977fbc2c43c8a7c0c7609b5224fb02e31e84246e824b8426aa01dcc4de8dec75d7aab85b567b6ccd41ad312451b948a7413f0a142fd40d49347942adc25665018aa1fe0e6bc666dac8fc2697ff9baa02a7be4c025aed057ca0a9a26749a3ca6638ffb10b3babed153d0f40946a5e874a056e81f171bcc55a6ff8345e692c0f86e5b48e01b996cadc001622fb5e363b421a056e81f171bcc55a6ff8345e692c0f86e5b48e01b996cadc001622fb5e363b421b9010000000000000000000000000000000000000000000000000000000000000000000000000000000000000000000000000000000000000000000000000000000000000000000000000000000000000000000000000000000000000000000000000000000000000000000000000000000000000000000000000000000000000000000000000000000000000000000000000000000000000000000000000000000000000000000000000000000000000000000000000000000000000000000000000000000000000000000000000000000000000000000000000000000000000000000000000000000000000000000000000000000000000000000000000000000000830200800284055d4a80801880a00000000000000000000000000000000000000000000000000000000000000000880000000000000000c0c0",
                "blocknumber": "2"
            },
            {
                "blockHeader": {
                    "parentHash": "0x391174ba1dddbe7c3e0cb81a4092f554fa0787bf737f549a3adf4739ede21835",
                    "uncleHash": "0x1dcc4de8dec75d7aab85b567b6ccd41ad312451b948a7413f0a142fd40d49347",
                    "coinbase": "0x2adc25665018aa1fe0e6bc666dac8fc2697ff9ba",
                    "stateRoot": "0xc4c68fa7694d9ce3a232af2d2d832d48650170b00d7e73408231e57f3e6aedb9",
                    "transactionsTrie": "0xfa713301492c38999749e478d548cea77dc743989d4df95114b9cbf48c7009b5",
                    "receiptTrie": "0x7247e30aa5cc9c3d37c052c5e92e31e37eb0dc6f288f2f606c75efac96a59cd3",
                    "bloom": "0x00000000000000000000000000000000000000000000000000000000000000000000000000000000000000000000000000000000000000000000000000000000000000000000000000000000000000000000000000000000000000000000000000000000000000000000000000000000000000000000000000000000000000000000000000000000000000000000000000000000000000000000000000000000000000000000000000000000000000000000000000000000000000000000000000000000000000000000000000000000000000000000000000000000000000000000000000000000000000000000000000000000000000000000000000000000",
                    "difficulty": "0x0200c0",
                    "number": "0x03",
                    "gasLimit": "0x055d4a80",
                    "gasUsed": "0x5208",
                    "timestamp": "0x24",
                    "extraData": "0x",
                    "mixHash": "0x0000000000000000000000000000000000000000000000000000000000000000",
                    "nonce": "0x0000000000000000",
                    "hash": "0x7408218579543e3d326b32e9ea9249d15d8fd207346389586ae07b2ad8b3d403"
                },
                "transactions": [
                    {
                        "type": "0x00",
                        "chainId": "0x01",
                        "nonce": "0x01",
                        "gasPrice": "0x0a",
                        "gasLimit": "0x0186a0",
                        "value": "0x00",
                        "data": "0x",
                        "v": "0x1b",
                        "r": "0x5368232172b77339a181b6d721728de454f43eb35509a793979cb1ca2b454296",
                        "s": "0x13f67f0fe70630b72990fbd0461290dedde5b77bb76a52608507fdcced2ce1cf",
                        "sender": "0xa94f5374fce5edbc8e2a8697c15331677e6ebf0b",
                        "to": ""
                    }
                ],
                "uncleHeaders": [],
                "rlp": "0xf9024af901f6a0391174ba1dddbe7c3e0cb81a4092f554fa0787bf737f549a3adf4739ede21835a01dcc4de8dec75d7aab85b567b6ccd41ad312451b948a7413f0a142fd40d49347942adc25665018aa1fe0e6bc666dac8fc2697ff9baa0c4c68fa7694d9ce3a232af2d2d832d48650170b00d7e73408231e57f3e6aedb9a0fa713301492c38999749e478d548cea77dc743989d4df95114b9cbf48c7009b5a07247e30aa5cc9c3d37c052c5e92e31e37eb0dc6f288f2f606c75efac96a59cd3b9010000000000000000000000000000000000000000000000000000000000000000000000000000000000000000000000000000000000000000000000000000000000000000000000000000000000000000000000000000000000000000000000000000000000000000000000000000000000000000000000000000000000000000000000000000000000000000000000000000000000000000000000000000000000000000000000000000000000000000000000000000000000000000000000000000000000000000000000000000000000000000000000000000000000000000000000000000000000000000000000000000000000000000000000000000000000830200c00384055d4a808252082480a00000000000000000000000000000000000000000000000000000000000000000880000000000000000f84ef84c010a830186a08080801ba05368232172b77339a181b6d721728de454f43eb35509a793979cb1ca2b454296a013f67f0fe70630b72990fbd0461290dedde5b77bb76a52608507fdcced2ce1cfc0",
                "blocknumber": "3"
            }
        ],
        "sealEngine": "NoProof",
        "_info": {
            "hash": "0x0126c0529d47b4010bd05dedd275bb49decc6ee0bcd561fd493d26d20ca10805",
            "comment": "`execution-spec-tests` generated test",
            "filling-transition-tool": "ethereum-spec-evm-resolver 0.0.5",
            "description": "Verify intermediate block states.",
            "url": "https://github.com/ethereum/execution-spec-tests/blob/e78565158bad26de99c70138163d49321a6acc84/tests/frontier/examples/test_block_intermediate_state.py#L15",
            "fixture-format": "blockchain_test",
            "eels-resolution": {
                "git-url": "https://github.com/ethereum/execution-specs.git",
                "branch": "forks/bpos",
                "commit": "7aacb2c54111391af5e98c505d5010b5698a770f"
            }
        }
    },
    "tests/frontier/examples/test_block_intermediate_state.py::test_block_intermediate_state[fork_Homestead-blockchain_test]": {
        "network": "Homestead",
        "genesisBlockHeader": {
            "parentHash": "0x0000000000000000000000000000000000000000000000000000000000000000",
            "uncleHash": "0x1dcc4de8dec75d7aab85b567b6ccd41ad312451b948a7413f0a142fd40d49347",
            "coinbase": "0x0000000000000000000000000000000000000000",
            "stateRoot": "0x70c42824108fafccadbfce71e6e22660c4fad89be18be324cd15ef351969a8c8",
            "transactionsTrie": "0x56e81f171bcc55a6ff8345e692c0f86e5b48e01b996cadc001622fb5e363b421",
            "receiptTrie": "0x56e81f171bcc55a6ff8345e692c0f86e5b48e01b996cadc001622fb5e363b421",
            "bloom": "0x00000000000000000000000000000000000000000000000000000000000000000000000000000000000000000000000000000000000000000000000000000000000000000000000000000000000000000000000000000000000000000000000000000000000000000000000000000000000000000000000000000000000000000000000000000000000000000000000000000000000000000000000000000000000000000000000000000000000000000000000000000000000000000000000000000000000000000000000000000000000000000000000000000000000000000000000000000000000000000000000000000000000000000000000000000000",
            "difficulty": "0x020000",
            "number": "0x00",
            "gasLimit": "0x055d4a80",
            "gasUsed": "0x00",
            "timestamp": "0x00",
            "extraData": "0x00",
            "mixHash": "0x0000000000000000000000000000000000000000000000000000000000000000",
            "nonce": "0x0000000000000000",
            "hash": "0xa5ca108a8e56e864c78f5e2f52478b8bc6e8cb30440cee24a0919d04c8ed2afc"
        },
        "pre": {
            "0xa94f5374fce5edbc8e2a8697c15331677e6ebf0b": {
                "nonce": "0x00",
                "balance": "0x3635c9adc5dea00000",
                "code": "0x",
                "storage": {}
            }
        },
        "postState": {
            "0xa94f5374fce5edbc8e2a8697c15331677e6ebf0b": {
                "nonce": "0x02",
                "balance": "0x3635c9adc5de8fd360",
                "code": "0x",
                "storage": {}
            },
            "0x6295ee1b4f6dd65047762f924ecd367c17eabf8f": {
                "nonce": "0x00",
                "balance": "0x00",
                "code": "0x",
                "storage": {}
            },
            "0x2adc25665018aa1fe0e6bc666dac8fc2697ff9ba": {
                "nonce": "0x00",
                "balance": "0xd02ab486ceec2ca0",
                "code": "0x",
                "storage": {}
            },
            "0xec0e71ad0a90ffe1909d27dac207f7680abba42d": {
                "nonce": "0x00",
                "balance": "0x00",
                "code": "0x",
                "storage": {}
            }
        },
        "lastblockhash": "0xcef86a5f1a53f2d86eb4c6254122a51f30e09e8ef47ed7caa2d169ac9d2aee36",
        "config": {
            "network": "Homestead",
            "chainid": "0x01"
        },
        "genesisRLP": "0xf901f9f901f4a00000000000000000000000000000000000000000000000000000000000000000a01dcc4de8dec75d7aab85b567b6ccd41ad312451b948a7413f0a142fd40d49347940000000000000000000000000000000000000000a070c42824108fafccadbfce71e6e22660c4fad89be18be324cd15ef351969a8c8a056e81f171bcc55a6ff8345e692c0f86e5b48e01b996cadc001622fb5e363b421a056e81f171bcc55a6ff8345e692c0f86e5b48e01b996cadc001622fb5e363b421b9010000000000000000000000000000000000000000000000000000000000000000000000000000000000000000000000000000000000000000000000000000000000000000000000000000000000000000000000000000000000000000000000000000000000000000000000000000000000000000000000000000000000000000000000000000000000000000000000000000000000000000000000000000000000000000000000000000000000000000000000000000000000000000000000000000000000000000000000000000000000000000000000000000000000000000000000000000000000000000000000000000000000000000000000000000000000830200008084055d4a80808000a00000000000000000000000000000000000000000000000000000000000000000880000000000000000c0c0",
        "blocks": [
            {
                "blockHeader": {
                    "parentHash": "0xa5ca108a8e56e864c78f5e2f52478b8bc6e8cb30440cee24a0919d04c8ed2afc",
                    "uncleHash": "0x1dcc4de8dec75d7aab85b567b6ccd41ad312451b948a7413f0a142fd40d49347",
                    "coinbase": "0x2adc25665018aa1fe0e6bc666dac8fc2697ff9ba",
                    "stateRoot": "0x0acd775f2d2235bc759a5d1ec1d5a243f08ff528e53728f341ef40a50f327ac2",
                    "transactionsTrie": "0x1df304ff88c97dc68663944ccd4499defb653696c807252449bce830c3e35d3c",
                    "receiptTrie": "0x4bf99e71e54f5f41d3121db329c9f1b4adf0b1e2962a1a506fce33fd3bca171c",
                    "bloom": "0x00000000000000000000000000000000000000000000000000000000000000000000000000000000000000000000000000000000000000000000000000000000000000000000000000000000000000000000000000000000000000000000000000000000000000000000000000000000000000000000000000000000000000000000000000000000000000000000000000000000000000000000000000000000000000000000000000000000000000000000000000000000000000000000000000000000000000000000000000000000000000000000000000000000000000000000000000000000000000000000000000000000000000000000000000000000",
                    "difficulty": "0x020000",
                    "number": "0x01",
                    "gasLimit": "0x055d4a80",
                    "gasUsed": "0xcf08",
                    "timestamp": "0x0c",
                    "extraData": "0x",
                    "mixHash": "0x0000000000000000000000000000000000000000000000000000000000000000",
                    "nonce": "0x0000000000000000",
                    "hash": "0xcc54856740b23fea2e8956e132d12b9e9b7954ced12830e2ea74b86f063e5e1c"
                },
                "transactions": [
                    {
                        "type": "0x00",
                        "chainId": "0x01",
                        "nonce": "0x00",
                        "gasPrice": "0x0a",
                        "gasLimit": "0x0186a0",
                        "value": "0x00",
                        "data": "0x",
                        "v": "0x1b",
                        "r": "0x4a70e36753e51ecbabb12ffefb365a5d70ddfc104dfbd752f26fb43bb03577fe",
                        "s": "0x06b0526056d8c5dd80222b72cc3f0860f38750ca98d3261b29ec6bdc5833d9d1",
                        "sender": "0xa94f5374fce5edbc8e2a8697c15331677e6ebf0b",
                        "to": ""
                    }
                ],
                "uncleHeaders": [],
                "rlp": "0xf9024af901f6a0a5ca108a8e56e864c78f5e2f52478b8bc6e8cb30440cee24a0919d04c8ed2afca01dcc4de8dec75d7aab85b567b6ccd41ad312451b948a7413f0a142fd40d49347942adc25665018aa1fe0e6bc666dac8fc2697ff9baa00acd775f2d2235bc759a5d1ec1d5a243f08ff528e53728f341ef40a50f327ac2a01df304ff88c97dc68663944ccd4499defb653696c807252449bce830c3e35d3ca04bf99e71e54f5f41d3121db329c9f1b4adf0b1e2962a1a506fce33fd3bca171cb9010000000000000000000000000000000000000000000000000000000000000000000000000000000000000000000000000000000000000000000000000000000000000000000000000000000000000000000000000000000000000000000000000000000000000000000000000000000000000000000000000000000000000000000000000000000000000000000000000000000000000000000000000000000000000000000000000000000000000000000000000000000000000000000000000000000000000000000000000000000000000000000000000000000000000000000000000000000000000000000000000000000000000000000000000000000000830200000184055d4a8082cf080c80a00000000000000000000000000000000000000000000000000000000000000000880000000000000000f84ef84c800a830186a08080801ba04a70e36753e51ecbabb12ffefb365a5d70ddfc104dfbd752f26fb43bb03577fea006b0526056d8c5dd80222b72cc3f0860f38750ca98d3261b29ec6bdc5833d9d1c0",
                "blocknumber": "1"
            },
            {
                "blockHeader": {
                    "parentHash": "0xcc54856740b23fea2e8956e132d12b9e9b7954ced12830e2ea74b86f063e5e1c",
                    "uncleHash": "0x1dcc4de8dec75d7aab85b567b6ccd41ad312451b948a7413f0a142fd40d49347",
                    "coinbase": "0x2adc25665018aa1fe0e6bc666dac8fc2697ff9ba",
                    "stateRoot": "0x9a48615ad6bc7264984c422bf7dfb4de4e37d8b2a1bccde99a60c227543c52f7",
                    "transactionsTrie": "0x56e81f171bcc55a6ff8345e692c0f86e5b48e01b996cadc001622fb5e363b421",
                    "receiptTrie": "0x56e81f171bcc55a6ff8345e692c0f86e5b48e01b996cadc001622fb5e363b421",
                    "bloom": "0x00000000000000000000000000000000000000000000000000000000000000000000000000000000000000000000000000000000000000000000000000000000000000000000000000000000000000000000000000000000000000000000000000000000000000000000000000000000000000000000000000000000000000000000000000000000000000000000000000000000000000000000000000000000000000000000000000000000000000000000000000000000000000000000000000000000000000000000000000000000000000000000000000000000000000000000000000000000000000000000000000000000000000000000000000000000",
                    "difficulty": "0x020000",
                    "number": "0x02",
                    "gasLimit": "0x055d4a80",
                    "gasUsed": "0x00",
                    "timestamp": "0x18",
                    "extraData": "0x",
                    "mixHash": "0x0000000000000000000000000000000000000000000000000000000000000000",
                    "nonce": "0x0000000000000000",
                    "hash": "0xcd66573581ed395e5d4108b89a379e6968773a46c262e31a389a2362d8ffc26e"
                },
                "transactions": [],
                "uncleHeaders": [],
                "rlp": "0xf901f9f901f4a0cc54856740b23fea2e8956e132d12b9e9b7954ced12830e2ea74b86f063e5e1ca01dcc4de8dec75d7aab85b567b6ccd41ad312451b948a7413f0a142fd40d49347942adc25665018aa1fe0e6bc666dac8fc2697ff9baa09a48615ad6bc7264984c422bf7dfb4de4e37d8b2a1bccde99a60c227543c52f7a056e81f171bcc55a6ff8345e692c0f86e5b48e01b996cadc001622fb5e363b421a056e81f171bcc55a6ff8345e692c0f86e5b48e01b996cadc001622fb5e363b421b9010000000000000000000000000000000000000000000000000000000000000000000000000000000000000000000000000000000000000000000000000000000000000000000000000000000000000000000000000000000000000000000000000000000000000000000000000000000000000000000000000000000000000000000000000000000000000000000000000000000000000000000000000000000000000000000000000000000000000000000000000000000000000000000000000000000000000000000000000000000000000000000000000000000000000000000000000000000000000000000000000000000000000000000000000000000000830200000284055d4a80801880a00000000000000000000000000000000000000000000000000000000000000000880000000000000000c0c0",
                "blocknumber": "2"
            },
            {
                "blockHeader": {
                    "parentHash": "0xcd66573581ed395e5d4108b89a379e6968773a46c262e31a389a2362d8ffc26e",
                    "uncleHash": "0x1dcc4de8dec75d7aab85b567b6ccd41ad312451b948a7413f0a142fd40d49347",
                    "coinbase": "0x2adc25665018aa1fe0e6bc666dac8fc2697ff9ba",
                    "stateRoot": "0x14e51d7039a4e053133e46578af3c68d115e4ab0ca8f413ff572d9dca5b07ec6",
                    "transactionsTrie": "0xfa713301492c38999749e478d548cea77dc743989d4df95114b9cbf48c7009b5",
                    "receiptTrie": "0xdbf6c57c08289ea50247e8fd5827f27fb6c30f9100f6aab598997c5959cdd052",
                    "bloom": "0x00000000000000000000000000000000000000000000000000000000000000000000000000000000000000000000000000000000000000000000000000000000000000000000000000000000000000000000000000000000000000000000000000000000000000000000000000000000000000000000000000000000000000000000000000000000000000000000000000000000000000000000000000000000000000000000000000000000000000000000000000000000000000000000000000000000000000000000000000000000000000000000000000000000000000000000000000000000000000000000000000000000000000000000000000000000",
                    "difficulty": "0x020000",
                    "number": "0x03",
                    "gasLimit": "0x055d4a80",
                    "gasUsed": "0xcf08",
                    "timestamp": "0x24",
                    "extraData": "0x",
                    "mixHash": "0x0000000000000000000000000000000000000000000000000000000000000000",
                    "nonce": "0x0000000000000000",
                    "hash": "0xcef86a5f1a53f2d86eb4c6254122a51f30e09e8ef47ed7caa2d169ac9d2aee36"
                },
                "transactions": [
                    {
                        "type": "0x00",
                        "chainId": "0x01",
                        "nonce": "0x01",
                        "gasPrice": "0x0a",
                        "gasLimit": "0x0186a0",
                        "value": "0x00",
                        "data": "0x",
                        "v": "0x1b",
                        "r": "0x5368232172b77339a181b6d721728de454f43eb35509a793979cb1ca2b454296",
                        "s": "0x13f67f0fe70630b72990fbd0461290dedde5b77bb76a52608507fdcced2ce1cf",
                        "sender": "0xa94f5374fce5edbc8e2a8697c15331677e6ebf0b",
                        "to": ""
                    }
                ],
                "uncleHeaders": [],
                "rlp": "0xf9024af901f6a0cd66573581ed395e5d4108b89a379e6968773a46c262e31a389a2362d8ffc26ea01dcc4de8dec75d7aab85b567b6ccd41ad312451b948a7413f0a142fd40d49347942adc25665018aa1fe0e6bc666dac8fc2697ff9baa014e51d7039a4e053133e46578af3c68d115e4ab0ca8f413ff572d9dca5b07ec6a0fa713301492c38999749e478d548cea77dc743989d4df95114b9cbf48c7009b5a0dbf6c57c08289ea50247e8fd5827f27fb6c30f9100f6aab598997c5959cdd052b9010000000000000000000000000000000000000000000000000000000000000000000000000000000000000000000000000000000000000000000000000000000000000000000000000000000000000000000000000000000000000000000000000000000000000000000000000000000000000000000000000000000000000000000000000000000000000000000000000000000000000000000000000000000000000000000000000000000000000000000000000000000000000000000000000000000000000000000000000000000000000000000000000000000000000000000000000000000000000000000000000000000000000000000000000000000000830200000384055d4a8082cf082480a00000000000000000000000000000000000000000000000000000000000000000880000000000000000f84ef84c010a830186a08080801ba05368232172b77339a181b6d721728de454f43eb35509a793979cb1ca2b454296a013f67f0fe70630b72990fbd0461290dedde5b77bb76a52608507fdcced2ce1cfc0",
                "blocknumber": "3"
            }
        ],
        "sealEngine": "NoProof",
        "_info": {
            "hash": "0x9b82a504caf27f9511351fef48eaba716c04e78789ec0fd50078268cfa353a7e",
            "comment": "`execution-spec-tests` generated test",
            "filling-transition-tool": "ethereum-spec-evm-resolver 0.0.5",
            "description": "Verify intermediate block states.",
            "url": "https://github.com/ethereum/execution-spec-tests/blob/e78565158bad26de99c70138163d49321a6acc84/tests/frontier/examples/test_block_intermediate_state.py#L15",
            "fixture-format": "blockchain_test",
            "eels-resolution": {
                "git-url": "https://github.com/ethereum/execution-specs.git",
                "branch": "forks/bpos",
                "commit": "7aacb2c54111391af5e98c505d5010b5698a770f"
            }
        }
    }
}