{
    "tests/frontier/opcodes/test_call.py::test_call_large_offset_mstore[fork_Berlin-blockchain_test_from_state_test]": {
        "network": "Berlin",
        "genesisBlockHeader": {
            "parentHash": "0x0000000000000000000000000000000000000000000000000000000000000000",
            "uncleHash": "0x1dcc4de8dec75d7aab85b567b6ccd41ad312451b948a7413f0a142fd40d49347",
            "coinbase": "0x0000000000000000000000000000000000000000",
            "stateRoot": "0x0f45e8286d9f094114e4ce695e02f92c13749ee9d3b69ab70a806bc1827e38a7",
            "transactionsTrie": "0x56e81f171bcc55a6ff8345e692c0f86e5b48e01b996cadc001622fb5e363b421",
            "receiptTrie": "0x56e81f171bcc55a6ff8345e692c0f86e5b48e01b996cadc001622fb5e363b421",
            "bloom": "0x00000000000000000000000000000000000000000000000000000000000000000000000000000000000000000000000000000000000000000000000000000000000000000000000000000000000000000000000000000000000000000000000000000000000000000000000000000000000000000000000000000000000000000000000000000000000000000000000000000000000000000000000000000000000000000000000000000000000000000000000000000000000000000000000000000000000000000000000000000000000000000000000000000000000000000000000000000000000000000000000000000000000000000000000000000000",
            "difficulty": "0x020000",
            "number": "0x00",
            "gasLimit": "0x055d4a80",
            "gasUsed": "0x00",
            "timestamp": "0x00",
            "extraData": "0x00",
            "mixHash": "0x0000000000000000000000000000000000000000000000000000000000000000",
            "nonce": "0x0000000000000000",
            "hash": "0xcc0416a560acd971e53b86ddb5abbe7e4fb61db38f4b569fb6a9321c9c100bb6"
        },
        "pre": {
            "0xa94f5374fce5edbc8e2a8697c15331677e6ebf0b": {
                "nonce": "0x00",
                "balance": "0x3635c9adc5dea00000",
                "code": "0x",
                "storage": {}
            },
            "0x1000000000000000000000000000000000001000": {
                "nonce": "0x01",
                "balance": "0x00",
                "code": "0x5a6000608060006000600060006000f15a90509003601790036000555a60016080525a90036008900360015500",
                "storage": {}
            }
        },
        "postState": {
            "0xa94f5374fce5edbc8e2a8697c15331677e6ebf0b": {
                "nonce": "0x01",
                "balance": "0x3635c9adc5de95a3e4",
                "code": "0x",
                "storage": {}
            },
            "0x1000000000000000000000000000000000001000": {
                "nonce": "0x01",
                "balance": "0x00",
                "code": "0x5a6000608060006000600060006000f15a90509003601790036000555a60016080525a90036008900360015500",
                "storage": {
                    "0x00": "0x0a28",
                    "0x01": "0x12"
                }
            },
            "0x2adc25665018aa1fe0e6bc666dac8fc2697ff9ba": {
                "nonce": "0x00",
                "balance": "0x1bc16d674ed25c1c",
                "code": "0x",
                "storage": {}
            }
        },
        "lastblockhash": "0xbf6b621d507c30d25145f6965c2220c7a507d1e4edbbb0be7ea5abc9de3bd6f9",
        "config": {
            "network": "Berlin",
            "chainid": "0x01"
        },
        "genesisRLP": "0xf901f9f901f4a00000000000000000000000000000000000000000000000000000000000000000a01dcc4de8dec75d7aab85b567b6ccd41ad312451b948a7413f0a142fd40d49347940000000000000000000000000000000000000000a00f45e8286d9f094114e4ce695e02f92c13749ee9d3b69ab70a806bc1827e38a7a056e81f171bcc55a6ff8345e692c0f86e5b48e01b996cadc001622fb5e363b421a056e81f171bcc55a6ff8345e692c0f86e5b48e01b996cadc001622fb5e363b421b9010000000000000000000000000000000000000000000000000000000000000000000000000000000000000000000000000000000000000000000000000000000000000000000000000000000000000000000000000000000000000000000000000000000000000000000000000000000000000000000000000000000000000000000000000000000000000000000000000000000000000000000000000000000000000000000000000000000000000000000000000000000000000000000000000000000000000000000000000000000000000000000000000000000000000000000000000000000000000000000000000000000000000000000000000000000000830200008084055d4a80808000a00000000000000000000000000000000000000000000000000000000000000000880000000000000000c0c0",
        "blocks": [
            {
                "blockHeader": {
                    "parentHash": "0xcc0416a560acd971e53b86ddb5abbe7e4fb61db38f4b569fb6a9321c9c100bb6",
                    "uncleHash": "0x1dcc4de8dec75d7aab85b567b6ccd41ad312451b948a7413f0a142fd40d49347",
                    "coinbase": "0x2adc25665018aa1fe0e6bc666dac8fc2697ff9ba",
                    "stateRoot": "0x47973881e84379722309b95ff90a106fc9e3ea57c8b1a03106fc6a511885cab5",
                    "transactionsTrie": "0x8af1757a40f34fddf348ed349e681fccc8579146da7d954459272870f6a8494f",
                    "receiptTrie": "0x5a0928bbe1e125b04d41085c3ec40386398387bc62ba945715dee7f6cd559786",
                    "bloom": "0x00000000000000000000000000000000000000000000000000000000000000000000000000000000000000000000000000000000000000000000000000000000000000000000000000000000000000000000000000000000000000000000000000000000000000000000000000000000000000000000000000000000000000000000000000000000000000000000000000000000000000000000000000000000000000000000000000000000000000000000000000000000000000000000000000000000000000000000000000000000000000000000000000000000000000000000000000000000000000000000000000000000000000000000000000000000",
                    "difficulty": "0x020000",
                    "number": "0x01",
                    "gasLimit": "0x055d4a80",
                    "gasUsed": "0x010936",
                    "timestamp": "0x03e8",
                    "extraData": "0x00",
                    "mixHash": "0x0000000000000000000000000000000000000000000000000000000000000000",
                    "nonce": "0x0000000000000000",
                    "hash": "0xbf6b621d507c30d25145f6965c2220c7a507d1e4edbbb0be7ea5abc9de3bd6f9"
                },
                "transactions": [
                    {
                        "type": "0x00",
                        "chainId": "0x01",
                        "nonce": "0x00",
                        "gasPrice": "0x0a",
                        "gasLimit": "0x07a120",
                        "to": "0x1000000000000000000000000000000000001000",
                        "value": "0x00",
                        "data": "0x",
                        "v": "0x25",
                        "r": "0xa1cee6ee86abb606ed49dd3ce8d0153a181fbd33f9cb16ffa9ca62c551298bb2",
                        "s": "0x3a5d20dfff30a409e663844c76630498702ddbed41129a50788a7215f1b2a54d",
                        "sender": "0xa94f5374fce5edbc8e2a8697c15331677e6ebf0b"
                    }
                ],
                "uncleHeaders": [],
                "rlp": "0xf90261f901f9a0cc0416a560acd971e53b86ddb5abbe7e4fb61db38f4b569fb6a9321c9c100bb6a01dcc4de8dec75d7aab85b567b6ccd41ad312451b948a7413f0a142fd40d49347942adc25665018aa1fe0e6bc666dac8fc2697ff9baa047973881e84379722309b95ff90a106fc9e3ea57c8b1a03106fc6a511885cab5a08af1757a40f34fddf348ed349e681fccc8579146da7d954459272870f6a8494fa05a0928bbe1e125b04d41085c3ec40386398387bc62ba945715dee7f6cd559786b9010000000000000000000000000000000000000000000000000000000000000000000000000000000000000000000000000000000000000000000000000000000000000000000000000000000000000000000000000000000000000000000000000000000000000000000000000000000000000000000000000000000000000000000000000000000000000000000000000000000000000000000000000000000000000000000000000000000000000000000000000000000000000000000000000000000000000000000000000000000000000000000000000000000000000000000000000000000000000000000000000000000000000000000000000000000000830200000184055d4a80830109368203e800a00000000000000000000000000000000000000000000000000000000000000000880000000000000000f862f860800a8307a120941000000000000000000000000000000000001000808025a0a1cee6ee86abb606ed49dd3ce8d0153a181fbd33f9cb16ffa9ca62c551298bb2a03a5d20dfff30a409e663844c76630498702ddbed41129a50788a7215f1b2a54dc0",
                "blocknumber": "1"
            }
        ],
        "sealEngine": "NoProof",
        "_info": {
            "hash": "0xe93b92d1ed19f040d7f81873be7abce03e139f02dfbb57f66a4f4d40584dfd15",
            "comment": "`execution-spec-tests` generated test",
            "filling-transition-tool": "ethereum-spec-evm-resolver 0.0.5",
            "description": "CALL with ret_offset larger than memory size and ret_size zero Then do an\n    MSTORE in that offset to see if memory was expanded in CALL.\n\n    This is for bug in a faulty EVM implementation where memory is expanded\n    when it shouldn't.",
            "url": "https://github.com/ethereum/execution-spec-tests/blob/e78565158bad26de99c70138163d49321a6acc84/tests/frontier/opcodes/test_call.py#L20",
            "fixture-format": "blockchain_test",
            "eels-resolution": {
                "git-url": "https://github.com/ethereum/execution-specs.git",
                "branch": "forks/bpos",
                "commit": "7aacb2c54111391af5e98c505d5010b5698a770f"
            }
        }
    },
    "tests/frontier/opcodes/test_call.py::test_call_large_offset_mstore[fork_Cancun-blockchain_test_from_state_test]": {
        "network": "Cancun",
        "genesisBlockHeader": {
            "parentHash": "0x0000000000000000000000000000000000000000000000000000000000000000",
            "uncleHash": "0x1dcc4de8dec75d7aab85b567b6ccd41ad312451b948a7413f0a142fd40d49347",
            "coinbase": "0x0000000000000000000000000000000000000000",
            "stateRoot": "0x0f45e8286d9f094114e4ce695e02f92c13749ee9d3b69ab70a806bc1827e38a7",
            "transactionsTrie": "0x56e81f171bcc55a6ff8345e692c0f86e5b48e01b996cadc001622fb5e363b421",
            "receiptTrie": "0x56e81f171bcc55a6ff8345e692c0f86e5b48e01b996cadc001622fb5e363b421",
            "bloom": "0x00000000000000000000000000000000000000000000000000000000000000000000000000000000000000000000000000000000000000000000000000000000000000000000000000000000000000000000000000000000000000000000000000000000000000000000000000000000000000000000000000000000000000000000000000000000000000000000000000000000000000000000000000000000000000000000000000000000000000000000000000000000000000000000000000000000000000000000000000000000000000000000000000000000000000000000000000000000000000000000000000000000000000000000000000000000",
            "difficulty": "0x00",
            "number": "0x00",
            "gasLimit": "0x055d4a80",
            "gasUsed": "0x00",
            "timestamp": "0x00",
            "extraData": "0x00",
            "mixHash": "0x0000000000000000000000000000000000000000000000000000000000000000",
            "nonce": "0x0000000000000000",
            "baseFeePerGas": "0x07",
            "withdrawalsRoot": "0x56e81f171bcc55a6ff8345e692c0f86e5b48e01b996cadc001622fb5e363b421",
            "blobGasUsed": "0x00",
            "excessBlobGas": "0x00",
            "parentBeaconBlockRoot": "0x0000000000000000000000000000000000000000000000000000000000000000",
            "hash": "0xdda938aa7bff5214e33fc8a59b8ab78521f45c116452797c83830352b40be94b"
        },
        "pre": {
            "0xa94f5374fce5edbc8e2a8697c15331677e6ebf0b": {
                "nonce": "0x00",
                "balance": "0x3635c9adc5dea00000",
                "code": "0x",
                "storage": {}
            },
            "0x1000000000000000000000000000000000001000": {
                "nonce": "0x01",
                "balance": "0x00",
                "code": "0x5a6000608060006000600060006000f15a90509003601790036000555a60016080525a90036008900360015500",
                "storage": {}
            }
        },
        "postState": {
            "0xa94f5374fce5edbc8e2a8697c15331677e6ebf0b": {
                "nonce": "0x01",
                "balance": "0x3635c9adc5de95a3e4",
                "code": "0x",
                "storage": {}
            },
            "0x1000000000000000000000000000000000001000": {
                "nonce": "0x01",
                "balance": "0x00",
                "code": "0x5a6000608060006000600060006000f15a90509003601790036000555a60016080525a90036008900360015500",
                "storage": {
                    "0x00": "0x0a28",
                    "0x01": "0x12"
                }
            },
            "0x2adc25665018aa1fe0e6bc666dac8fc2697ff9ba": {
                "nonce": "0x00",
                "balance": "0x031ba2",
                "code": "0x",
                "storage": {}
            }
        },
        "lastblockhash": "0x8b3a5cea41a434e0e66e5b7bb7ad268125ea1a3ce2226e8bd06316f4ed27b627",
        "config": {
            "network": "Cancun",
            "chainid": "0x01",
            "blobSchedule": {
                "Cancun": {
                    "target": "0x03",
                    "max": "0x06",
                    "baseFeeUpdateFraction": "0x32f0ed"
                }
            }
        },
        "genesisRLP": "0xf9023cf90236a00000000000000000000000000000000000000000000000000000000000000000a01dcc4de8dec75d7aab85b567b6ccd41ad312451b948a7413f0a142fd40d49347940000000000000000000000000000000000000000a00f45e8286d9f094114e4ce695e02f92c13749ee9d3b69ab70a806bc1827e38a7a056e81f171bcc55a6ff8345e692c0f86e5b48e01b996cadc001622fb5e363b421a056e81f171bcc55a6ff8345e692c0f86e5b48e01b996cadc001622fb5e363b421b9010000000000000000000000000000000000000000000000000000000000000000000000000000000000000000000000000000000000000000000000000000000000000000000000000000000000000000000000000000000000000000000000000000000000000000000000000000000000000000000000000000000000000000000000000000000000000000000000000000000000000000000000000000000000000000000000000000000000000000000000000000000000000000000000000000000000000000000000000000000000000000000000000000000000000000000000000000000000000000000000000000000000000000000000000000000000808084055d4a80808000a0000000000000000000000000000000000000000000000000000000000000000088000000000000000007a056e81f171bcc55a6ff8345e692c0f86e5b48e01b996cadc001622fb5e363b4218080a00000000000000000000000000000000000000000000000000000000000000000c0c0c0",
        "blocks": [
            {
                "blockHeader": {
                    "parentHash": "0xdda938aa7bff5214e33fc8a59b8ab78521f45c116452797c83830352b40be94b",
                    "uncleHash": "0x1dcc4de8dec75d7aab85b567b6ccd41ad312451b948a7413f0a142fd40d49347",
                    "coinbase": "0x2adc25665018aa1fe0e6bc666dac8fc2697ff9ba",
                    "stateRoot": "0x04cbac25f0ccad9a26cdd06b112b285c0eb1513297da653ad1cb0dbe66d51fa8",
                    "transactionsTrie": "0x8af1757a40f34fddf348ed349e681fccc8579146da7d954459272870f6a8494f",
                    "receiptTrie": "0x5a0928bbe1e125b04d41085c3ec40386398387bc62ba945715dee7f6cd559786",
                    "bloom": "0x00000000000000000000000000000000000000000000000000000000000000000000000000000000000000000000000000000000000000000000000000000000000000000000000000000000000000000000000000000000000000000000000000000000000000000000000000000000000000000000000000000000000000000000000000000000000000000000000000000000000000000000000000000000000000000000000000000000000000000000000000000000000000000000000000000000000000000000000000000000000000000000000000000000000000000000000000000000000000000000000000000000000000000000000000000000",
                    "difficulty": "0x00",
                    "number": "0x01",
                    "gasLimit": "0x055d4a80",
                    "gasUsed": "0x010936",
                    "timestamp": "0x03e8",
                    "extraData": "0x00",
                    "mixHash": "0x0000000000000000000000000000000000000000000000000000000000000000",
                    "nonce": "0x0000000000000000",
                    "baseFeePerGas": "0x07",
                    "withdrawalsRoot": "0x56e81f171bcc55a6ff8345e692c0f86e5b48e01b996cadc001622fb5e363b421",
                    "blobGasUsed": "0x00",
                    "excessBlobGas": "0x00",
                    "parentBeaconBlockRoot": "0x0000000000000000000000000000000000000000000000000000000000000000",
                    "hash": "0x8b3a5cea41a434e0e66e5b7bb7ad268125ea1a3ce2226e8bd06316f4ed27b627"
                },
                "transactions": [
                    {
                        "type": "0x00",
                        "chainId": "0x01",
                        "nonce": "0x00",
                        "gasPrice": "0x0a",
                        "gasLimit": "0x07a120",
                        "to": "0x1000000000000000000000000000000000001000",
                        "value": "0x00",
                        "data": "0x",
                        "v": "0x25",
                        "r": "0xa1cee6ee86abb606ed49dd3ce8d0153a181fbd33f9cb16ffa9ca62c551298bb2",
                        "s": "0x3a5d20dfff30a409e663844c76630498702ddbed41129a50788a7215f1b2a54d",
                        "sender": "0xa94f5374fce5edbc8e2a8697c15331677e6ebf0b"
                    }
                ],
                "uncleHeaders": [],
                "withdrawals": [],
                "rlp": "0xf902a4f9023ba0dda938aa7bff5214e33fc8a59b8ab78521f45c116452797c83830352b40be94ba01dcc4de8dec75d7aab85b567b6ccd41ad312451b948a7413f0a142fd40d49347942adc25665018aa1fe0e6bc666dac8fc2697ff9baa004cbac25f0ccad9a26cdd06b112b285c0eb1513297da653ad1cb0dbe66d51fa8a08af1757a40f34fddf348ed349e681fccc8579146da7d954459272870f6a8494fa05a0928bbe1e125b04d41085c3ec40386398387bc62ba945715dee7f6cd559786b9010000000000000000000000000000000000000000000000000000000000000000000000000000000000000000000000000000000000000000000000000000000000000000000000000000000000000000000000000000000000000000000000000000000000000000000000000000000000000000000000000000000000000000000000000000000000000000000000000000000000000000000000000000000000000000000000000000000000000000000000000000000000000000000000000000000000000000000000000000000000000000000000000000000000000000000000000000000000000000000000000000000000000000000000000000000000800184055d4a80830109368203e800a0000000000000000000000000000000000000000000000000000000000000000088000000000000000007a056e81f171bcc55a6ff8345e692c0f86e5b48e01b996cadc001622fb5e363b4218080a00000000000000000000000000000000000000000000000000000000000000000f862f860800a8307a120941000000000000000000000000000000000001000808025a0a1cee6ee86abb606ed49dd3ce8d0153a181fbd33f9cb16ffa9ca62c551298bb2a03a5d20dfff30a409e663844c76630498702ddbed41129a50788a7215f1b2a54dc0c0",
                "blocknumber": "1"
            }
        ],
        "sealEngine": "NoProof",
        "_info": {
            "hash": "0x73c6e82cfb3d7d364d02b25296688eb993af656c0b3aac7ef10380d63355f7d5",
            "comment": "`execution-spec-tests` generated test",
            "filling-transition-tool": "ethereum-spec-evm-resolver 0.0.5",
            "description": "CALL with ret_offset larger than memory size and ret_size zero Then do an\n    MSTORE in that offset to see if memory was expanded in CALL.\n\n    This is for bug in a faulty EVM implementation where memory is expanded\n    when it shouldn't.",
            "url": "https://github.com/ethereum/execution-spec-tests/blob/e78565158bad26de99c70138163d49321a6acc84/tests/frontier/opcodes/test_call.py#L20",
            "fixture-format": "blockchain_test",
            "eels-resolution": {
                "git-url": "https://github.com/ethereum/execution-specs.git",
                "branch": "forks/bpos",
                "commit": "7aacb2c54111391af5e98c505d5010b5698a770f"
            }
        }
    },
    "tests/frontier/opcodes/test_call.py::test_call_large_offset_mstore[fork_London-blockchain_test_from_state_test]": {
        "network": "London",
        "genesisBlockHeader": {
            "parentHash": "0x0000000000000000000000000000000000000000000000000000000000000000",
            "uncleHash": "0x1dcc4de8dec75d7aab85b567b6ccd41ad312451b948a7413f0a142fd40d49347",
            "coinbase": "0x0000000000000000000000000000000000000000",
            "stateRoot": "0x0f45e8286d9f094114e4ce695e02f92c13749ee9d3b69ab70a806bc1827e38a7",
            "transactionsTrie": "0x56e81f171bcc55a6ff8345e692c0f86e5b48e01b996cadc001622fb5e363b421",
            "receiptTrie": "0x56e81f171bcc55a6ff8345e692c0f86e5b48e01b996cadc001622fb5e363b421",
            "bloom": "0x00000000000000000000000000000000000000000000000000000000000000000000000000000000000000000000000000000000000000000000000000000000000000000000000000000000000000000000000000000000000000000000000000000000000000000000000000000000000000000000000000000000000000000000000000000000000000000000000000000000000000000000000000000000000000000000000000000000000000000000000000000000000000000000000000000000000000000000000000000000000000000000000000000000000000000000000000000000000000000000000000000000000000000000000000000000",
            "difficulty": "0x020000",
            "number": "0x00",
            "gasLimit": "0x055d4a80",
            "gasUsed": "0x00",
            "timestamp": "0x00",
            "extraData": "0x00",
            "mixHash": "0x0000000000000000000000000000000000000000000000000000000000000000",
            "nonce": "0x0000000000000000",
            "baseFeePerGas": "0x07",
            "hash": "0x9e0e95da71e0119523553b13623460c54d6deefa8fe8cdfac2cbc1bdbae7e284"
        },
        "pre": {
            "0xa94f5374fce5edbc8e2a8697c15331677e6ebf0b": {
                "nonce": "0x00",
                "balance": "0x3635c9adc5dea00000",
                "code": "0x",
                "storage": {}
            },
            "0x1000000000000000000000000000000000001000": {
                "nonce": "0x01",
                "balance": "0x00",
                "code": "0x5a6000608060006000600060006000f15a90509003601790036000555a60016080525a90036008900360015500",
                "storage": {}
            }
        },
        "postState": {
            "0xa94f5374fce5edbc8e2a8697c15331677e6ebf0b": {
                "nonce": "0x01",
                "balance": "0x3635c9adc5de95a3e4",
                "code": "0x",
                "storage": {}
            },
            "0x1000000000000000000000000000000000001000": {
                "nonce": "0x01",
                "balance": "0x00",
                "code": "0x5a6000608060006000600060006000f15a90509003601790036000555a60016080525a90036008900360015500",
                "storage": {
                    "0x00": "0x0a28",
                    "0x01": "0x12"
                }
            },
            "0x2adc25665018aa1fe0e6bc666dac8fc2697ff9ba": {
                "nonce": "0x00",
                "balance": "0x1bc16d674ecb1ba2",
                "code": "0x",
                "storage": {}
            }
        },
        "lastblockhash": "0x046a4b073d7817b22ae53b2659deb4ed5eae8c941b0c1772465c0eadf4cbf369",
        "config": {
            "network": "London",
            "chainid": "0x01"
        },
        "genesisRLP": "0xf901faf901f5a00000000000000000000000000000000000000000000000000000000000000000a01dcc4de8dec75d7aab85b567b6ccd41ad312451b948a7413f0a142fd40d49347940000000000000000000000000000000000000000a00f45e8286d9f094114e4ce695e02f92c13749ee9d3b69ab70a806bc1827e38a7a056e81f171bcc55a6ff8345e692c0f86e5b48e01b996cadc001622fb5e363b421a056e81f171bcc55a6ff8345e692c0f86e5b48e01b996cadc001622fb5e363b421b9010000000000000000000000000000000000000000000000000000000000000000000000000000000000000000000000000000000000000000000000000000000000000000000000000000000000000000000000000000000000000000000000000000000000000000000000000000000000000000000000000000000000000000000000000000000000000000000000000000000000000000000000000000000000000000000000000000000000000000000000000000000000000000000000000000000000000000000000000000000000000000000000000000000000000000000000000000000000000000000000000000000000000000000000000000000000830200008084055d4a80808000a0000000000000000000000000000000000000000000000000000000000000000088000000000000000007c0c0",
        "blocks": [
            {
                "blockHeader": {
                    "parentHash": "0x9e0e95da71e0119523553b13623460c54d6deefa8fe8cdfac2cbc1bdbae7e284",
                    "uncleHash": "0x1dcc4de8dec75d7aab85b567b6ccd41ad312451b948a7413f0a142fd40d49347",
                    "coinbase": "0x2adc25665018aa1fe0e6bc666dac8fc2697ff9ba",
                    "stateRoot": "0x4135764660dd7bf6c27395ca41f6b6f709de195eba733c9e1372d824e3aa2dcd",
                    "transactionsTrie": "0x8af1757a40f34fddf348ed349e681fccc8579146da7d954459272870f6a8494f",
                    "receiptTrie": "0x5a0928bbe1e125b04d41085c3ec40386398387bc62ba945715dee7f6cd559786",
                    "bloom": "0x00000000000000000000000000000000000000000000000000000000000000000000000000000000000000000000000000000000000000000000000000000000000000000000000000000000000000000000000000000000000000000000000000000000000000000000000000000000000000000000000000000000000000000000000000000000000000000000000000000000000000000000000000000000000000000000000000000000000000000000000000000000000000000000000000000000000000000000000000000000000000000000000000000000000000000000000000000000000000000000000000000000000000000000000000000000",
                    "difficulty": "0x020000",
                    "number": "0x01",
                    "gasLimit": "0x055d4a80",
                    "gasUsed": "0x010936",
                    "timestamp": "0x03e8",
                    "extraData": "0x00",
                    "mixHash": "0x0000000000000000000000000000000000000000000000000000000000000000",
                    "nonce": "0x0000000000000000",
                    "baseFeePerGas": "0x07",
                    "hash": "0x046a4b073d7817b22ae53b2659deb4ed5eae8c941b0c1772465c0eadf4cbf369"
                },
                "transactions": [
                    {
                        "type": "0x00",
                        "chainId": "0x01",
                        "nonce": "0x00",
                        "gasPrice": "0x0a",
                        "gasLimit": "0x07a120",
                        "to": "0x1000000000000000000000000000000000001000",
                        "value": "0x00",
                        "data": "0x",
                        "v": "0x25",
                        "r": "0xa1cee6ee86abb606ed49dd3ce8d0153a181fbd33f9cb16ffa9ca62c551298bb2",
                        "s": "0x3a5d20dfff30a409e663844c76630498702ddbed41129a50788a7215f1b2a54d",
                        "sender": "0xa94f5374fce5edbc8e2a8697c15331677e6ebf0b"
                    }
                ],
                "uncleHeaders": [],
                "rlp": "0xf90262f901faa09e0e95da71e0119523553b13623460c54d6deefa8fe8cdfac2cbc1bdbae7e284a01dcc4de8dec75d7aab85b567b6ccd41ad312451b948a7413f0a142fd40d49347942adc25665018aa1fe0e6bc666dac8fc2697ff9baa04135764660dd7bf6c27395ca41f6b6f709de195eba733c9e1372d824e3aa2dcda08af1757a40f34fddf348ed349e681fccc8579146da7d954459272870f6a8494fa05a0928bbe1e125b04d41085c3ec40386398387bc62ba945715dee7f6cd559786b9010000000000000000000000000000000000000000000000000000000000000000000000000000000000000000000000000000000000000000000000000000000000000000000000000000000000000000000000000000000000000000000000000000000000000000000000000000000000000000000000000000000000000000000000000000000000000000000000000000000000000000000000000000000000000000000000000000000000000000000000000000000000000000000000000000000000000000000000000000000000000000000000000000000000000000000000000000000000000000000000000000000000000000000000000000000000830200000184055d4a80830109368203e800a0000000000000000000000000000000000000000000000000000000000000000088000000000000000007f862f860800a8307a120941000000000000000000000000000000000001000808025a0a1cee6ee86abb606ed49dd3ce8d0153a181fbd33f9cb16ffa9ca62c551298bb2a03a5d20dfff30a409e663844c76630498702ddbed41129a50788a7215f1b2a54dc0",
                "blocknumber": "1"
            }
        ],
        "sealEngine": "NoProof",
        "_info": {
            "hash": "0x40659a6e09681a8d8634966a77db5c7bd255d1a8fb037f4782fd81368dfa0270",
            "comment": "`execution-spec-tests` generated test",
            "filling-transition-tool": "ethereum-spec-evm-resolver 0.0.5",
            "description": "CALL with ret_offset larger than memory size and ret_size zero Then do an\n    MSTORE in that offset to see if memory was expanded in CALL.\n\n    This is for bug in a faulty EVM implementation where memory is expanded\n    when it shouldn't.",
            "url": "https://github.com/ethereum/execution-spec-tests/blob/e78565158bad26de99c70138163d49321a6acc84/tests/frontier/opcodes/test_call.py#L20",
            "fixture-format": "blockchain_test",
            "eels-resolution": {
                "git-url": "https://github.com/ethereum/execution-specs.git",
                "branch": "forks/bpos",
                "commit": "7aacb2c54111391af5e98c505d5010b5698a770f"
            }
        }
    },
    "tests/frontier/opcodes/test_call.py::test_call_large_offset_mstore[fork_Paris-blockchain_test_from_state_test]": {
        "network": "Paris",
        "genesisBlockHeader": {
            "parentHash": "0x0000000000000000000000000000000000000000000000000000000000000000",
            "uncleHash": "0x1dcc4de8dec75d7aab85b567b6ccd41ad312451b948a7413f0a142fd40d49347",
            "coinbase": "0x0000000000000000000000000000000000000000",
            "stateRoot": "0x0f45e8286d9f094114e4ce695e02f92c13749ee9d3b69ab70a806bc1827e38a7",
            "transactionsTrie": "0x56e81f171bcc55a6ff8345e692c0f86e5b48e01b996cadc001622fb5e363b421",
            "receiptTrie": "0x56e81f171bcc55a6ff8345e692c0f86e5b48e01b996cadc001622fb5e363b421",
            "bloom": "0x00000000000000000000000000000000000000000000000000000000000000000000000000000000000000000000000000000000000000000000000000000000000000000000000000000000000000000000000000000000000000000000000000000000000000000000000000000000000000000000000000000000000000000000000000000000000000000000000000000000000000000000000000000000000000000000000000000000000000000000000000000000000000000000000000000000000000000000000000000000000000000000000000000000000000000000000000000000000000000000000000000000000000000000000000000000",
            "difficulty": "0x00",
            "number": "0x00",
            "gasLimit": "0x055d4a80",
            "gasUsed": "0x00",
            "timestamp": "0x00",
            "extraData": "0x00",
            "mixHash": "0x0000000000000000000000000000000000000000000000000000000000000000",
            "nonce": "0x0000000000000000",
            "baseFeePerGas": "0x07",
            "hash": "0xdaa101d344b632d15174c1c1465eb02a380312f79e8a11e3cc89afeec6e98f47"
        },
        "pre": {
            "0xa94f5374fce5edbc8e2a8697c15331677e6ebf0b": {
                "nonce": "0x00",
                "balance": "0x3635c9adc5dea00000",
                "code": "0x",
                "storage": {}
            },
            "0x1000000000000000000000000000000000001000": {
                "nonce": "0x01",
                "balance": "0x00",
                "code": "0x5a6000608060006000600060006000f15a90509003601790036000555a60016080525a90036008900360015500",
                "storage": {}
            }
        },
        "postState": {
            "0xa94f5374fce5edbc8e2a8697c15331677e6ebf0b": {
                "nonce": "0x01",
                "balance": "0x3635c9adc5de95a3e4",
                "code": "0x",
                "storage": {}
            },
            "0x1000000000000000000000000000000000001000": {
                "nonce": "0x01",
                "balance": "0x00",
                "code": "0x5a6000608060006000600060006000f15a90509003601790036000555a60016080525a90036008900360015500",
                "storage": {
                    "0x00": "0x0a28",
                    "0x01": "0x12"
                }
            },
            "0x2adc25665018aa1fe0e6bc666dac8fc2697ff9ba": {
                "nonce": "0x00",
                "balance": "0x031ba2",
                "code": "0x",
                "storage": {}
            }
        },
        "lastblockhash": "0x47ee551c2f6f906e2b05979394260d562cc920561c61f4308863c4493fbc1a09",
        "config": {
            "network": "Paris",
            "chainid": "0x01"
        },
        "genesisRLP": "0xf901f7f901f2a00000000000000000000000000000000000000000000000000000000000000000a01dcc4de8dec75d7aab85b567b6ccd41ad312451b948a7413f0a142fd40d49347940000000000000000000000000000000000000000a00f45e8286d9f094114e4ce695e02f92c13749ee9d3b69ab70a806bc1827e38a7a056e81f171bcc55a6ff8345e692c0f86e5b48e01b996cadc001622fb5e363b421a056e81f171bcc55a6ff8345e692c0f86e5b48e01b996cadc001622fb5e363b421b9010000000000000000000000000000000000000000000000000000000000000000000000000000000000000000000000000000000000000000000000000000000000000000000000000000000000000000000000000000000000000000000000000000000000000000000000000000000000000000000000000000000000000000000000000000000000000000000000000000000000000000000000000000000000000000000000000000000000000000000000000000000000000000000000000000000000000000000000000000000000000000000000000000000000000000000000000000000000000000000000000000000000000000000000000000000000808084055d4a80808000a0000000000000000000000000000000000000000000000000000000000000000088000000000000000007c0c0",
        "blocks": [
            {
                "blockHeader": {
                    "parentHash": "0xdaa101d344b632d15174c1c1465eb02a380312f79e8a11e3cc89afeec6e98f47",
                    "uncleHash": "0x1dcc4de8dec75d7aab85b567b6ccd41ad312451b948a7413f0a142fd40d49347",
                    "coinbase": "0x2adc25665018aa1fe0e6bc666dac8fc2697ff9ba",
                    "stateRoot": "0x04cbac25f0ccad9a26cdd06b112b285c0eb1513297da653ad1cb0dbe66d51fa8",
                    "transactionsTrie": "0x8af1757a40f34fddf348ed349e681fccc8579146da7d954459272870f6a8494f",
                    "receiptTrie": "0x5a0928bbe1e125b04d41085c3ec40386398387bc62ba945715dee7f6cd559786",
                    "bloom": "0x00000000000000000000000000000000000000000000000000000000000000000000000000000000000000000000000000000000000000000000000000000000000000000000000000000000000000000000000000000000000000000000000000000000000000000000000000000000000000000000000000000000000000000000000000000000000000000000000000000000000000000000000000000000000000000000000000000000000000000000000000000000000000000000000000000000000000000000000000000000000000000000000000000000000000000000000000000000000000000000000000000000000000000000000000000000",
                    "difficulty": "0x00",
                    "number": "0x01",
                    "gasLimit": "0x055d4a80",
                    "gasUsed": "0x010936",
                    "timestamp": "0x03e8",
                    "extraData": "0x00",
                    "mixHash": "0x0000000000000000000000000000000000000000000000000000000000000000",
                    "nonce": "0x0000000000000000",
                    "baseFeePerGas": "0x07",
                    "hash": "0x47ee551c2f6f906e2b05979394260d562cc920561c61f4308863c4493fbc1a09"
                },
                "transactions": [
                    {
                        "type": "0x00",
                        "chainId": "0x01",
                        "nonce": "0x00",
                        "gasPrice": "0x0a",
                        "gasLimit": "0x07a120",
                        "to": "0x1000000000000000000000000000000000001000",
                        "value": "0x00",
                        "data": "0x",
                        "v": "0x25",
                        "r": "0xa1cee6ee86abb606ed49dd3ce8d0153a181fbd33f9cb16ffa9ca62c551298bb2",
                        "s": "0x3a5d20dfff30a409e663844c76630498702ddbed41129a50788a7215f1b2a54d",
                        "sender": "0xa94f5374fce5edbc8e2a8697c15331677e6ebf0b"
                    }
                ],
                "uncleHeaders": [],
                "rlp": "0xf9025ff901f7a0daa101d344b632d15174c1c1465eb02a380312f79e8a11e3cc89afeec6e98f47a01dcc4de8dec75d7aab85b567b6ccd41ad312451b948a7413f0a142fd40d49347942adc25665018aa1fe0e6bc666dac8fc2697ff9baa004cbac25f0ccad9a26cdd06b112b285c0eb1513297da653ad1cb0dbe66d51fa8a08af1757a40f34fddf348ed349e681fccc8579146da7d954459272870f6a8494fa05a0928bbe1e125b04d41085c3ec40386398387bc62ba945715dee7f6cd559786b9010000000000000000000000000000000000000000000000000000000000000000000000000000000000000000000000000000000000000000000000000000000000000000000000000000000000000000000000000000000000000000000000000000000000000000000000000000000000000000000000000000000000000000000000000000000000000000000000000000000000000000000000000000000000000000000000000000000000000000000000000000000000000000000000000000000000000000000000000000000000000000000000000000000000000000000000000000000000000000000000000000000000000000000000000000000000800184055d4a80830109368203e800a0000000000000000000000000000000000000000000000000000000000000000088000000000000000007f862f860800a8307a120941000000000000000000000000000000000001000808025a0a1cee6ee86abb606ed49dd3ce8d0153a181fbd33f9cb16ffa9ca62c551298bb2a03a5d20dfff30a409e663844c76630498702ddbed41129a50788a7215f1b2a54dc0",
                "blocknumber": "1"
            }
        ],
        "sealEngine": "NoProof",
        "_info": {
            "hash": "0x21fc027b5e95896d977d401800d173c4f23ec15ee992a28abf04299b8c362a59",
            "comment": "`execution-spec-tests` generated test",
            "filling-transition-tool": "ethereum-spec-evm-resolver 0.0.5",
            "description": "CALL with ret_offset larger than memory size and ret_size zero Then do an\n    MSTORE in that offset to see if memory was expanded in CALL.\n\n    This is for bug in a faulty EVM implementation where memory is expanded\n    when it shouldn't.",
            "url": "https://github.com/ethereum/execution-spec-tests/blob/e78565158bad26de99c70138163d49321a6acc84/tests/frontier/opcodes/test_call.py#L20",
            "fixture-format": "blockchain_test",
            "eels-resolution": {
                "git-url": "https://github.com/ethereum/execution-specs.git",
                "branch": "forks/bpos",
                "commit": "7aacb2c54111391af5e98c505d5010b5698a770f"
            }
        }
    },
    "tests/frontier/opcodes/test_call.py::test_call_large_offset_mstore[fork_Shanghai-blockchain_test_from_state_test]": {
        "network": "Shanghai",
        "genesisBlockHeader": {
            "parentHash": "0x0000000000000000000000000000000000000000000000000000000000000000",
            "uncleHash": "0x1dcc4de8dec75d7aab85b567b6ccd41ad312451b948a7413f0a142fd40d49347",
            "coinbase": "0x0000000000000000000000000000000000000000",
            "stateRoot": "0x0f45e8286d9f094114e4ce695e02f92c13749ee9d3b69ab70a806bc1827e38a7",
            "transactionsTrie": "0x56e81f171bcc55a6ff8345e692c0f86e5b48e01b996cadc001622fb5e363b421",
            "receiptTrie": "0x56e81f171bcc55a6ff8345e692c0f86e5b48e01b996cadc001622fb5e363b421",
            "bloom": "0x00000000000000000000000000000000000000000000000000000000000000000000000000000000000000000000000000000000000000000000000000000000000000000000000000000000000000000000000000000000000000000000000000000000000000000000000000000000000000000000000000000000000000000000000000000000000000000000000000000000000000000000000000000000000000000000000000000000000000000000000000000000000000000000000000000000000000000000000000000000000000000000000000000000000000000000000000000000000000000000000000000000000000000000000000000000",
            "difficulty": "0x00",
            "number": "0x00",
            "gasLimit": "0x055d4a80",
            "gasUsed": "0x00",
            "timestamp": "0x00",
            "extraData": "0x00",
            "mixHash": "0x0000000000000000000000000000000000000000000000000000000000000000",
            "nonce": "0x0000000000000000",
            "baseFeePerGas": "0x07",
            "withdrawalsRoot": "0x56e81f171bcc55a6ff8345e692c0f86e5b48e01b996cadc001622fb5e363b421",
            "hash": "0x9b8f641945122819fde1c8ae5a7ae680cc19e2fc168704498a5c6c5622231652"
        },
        "pre": {
            "0xa94f5374fce5edbc8e2a8697c15331677e6ebf0b": {
                "nonce": "0x00",
                "balance": "0x3635c9adc5dea00000",
                "code": "0x",
                "storage": {}
            },
            "0x1000000000000000000000000000000000001000": {
                "nonce": "0x01",
                "balance": "0x00",
                "code": "0x5a6000608060006000600060006000f15a90509003601790036000555a60016080525a90036008900360015500",
                "storage": {}
            }
        },
        "postState": {
            "0xa94f5374fce5edbc8e2a8697c15331677e6ebf0b": {
                "nonce": "0x01",
                "balance": "0x3635c9adc5de95a3e4",
                "code": "0x",
                "storage": {}
            },
            "0x1000000000000000000000000000000000001000": {
                "nonce": "0x01",
                "balance": "0x00",
                "code": "0x5a6000608060006000600060006000f15a90509003601790036000555a60016080525a90036008900360015500",
                "storage": {
                    "0x00": "0x0a28",
                    "0x01": "0x12"
                }
            },
            "0x2adc25665018aa1fe0e6bc666dac8fc2697ff9ba": {
                "nonce": "0x00",
                "balance": "0x031ba2",
                "code": "0x",
                "storage": {}
            }
        },
        "lastblockhash": "0xf6b5f9fadfab32e5eac5dc5223dba6326377c591f4eb0c13c333a138026db92e",
        "config": {
            "network": "Shanghai",
            "chainid": "0x01"
        },
        "genesisRLP": "0xf90219f90213a00000000000000000000000000000000000000000000000000000000000000000a01dcc4de8dec75d7aab85b567b6ccd41ad312451b948a7413f0a142fd40d49347940000000000000000000000000000000000000000a00f45e8286d9f094114e4ce695e02f92c13749ee9d3b69ab70a806bc1827e38a7a056e81f171bcc55a6ff8345e692c0f86e5b48e01b996cadc001622fb5e363b421a056e81f171bcc55a6ff8345e692c0f86e5b48e01b996cadc001622fb5e363b421b9010000000000000000000000000000000000000000000000000000000000000000000000000000000000000000000000000000000000000000000000000000000000000000000000000000000000000000000000000000000000000000000000000000000000000000000000000000000000000000000000000000000000000000000000000000000000000000000000000000000000000000000000000000000000000000000000000000000000000000000000000000000000000000000000000000000000000000000000000000000000000000000000000000000000000000000000000000000000000000000000000000000000000000000000000000000000808084055d4a80808000a0000000000000000000000000000000000000000000000000000000000000000088000000000000000007a056e81f171bcc55a6ff8345e692c0f86e5b48e01b996cadc001622fb5e363b421c0c0c0",
        "blocks": [
            {
                "blockHeader": {
                    "parentHash": "0x9b8f641945122819fde1c8ae5a7ae680cc19e2fc168704498a5c6c5622231652",
                    "uncleHash": "0x1dcc4de8dec75d7aab85b567b6ccd41ad312451b948a7413f0a142fd40d49347",
                    "coinbase": "0x2adc25665018aa1fe0e6bc666dac8fc2697ff9ba",
                    "stateRoot": "0x04cbac25f0ccad9a26cdd06b112b285c0eb1513297da653ad1cb0dbe66d51fa8",
                    "transactionsTrie": "0x8af1757a40f34fddf348ed349e681fccc8579146da7d954459272870f6a8494f",
                    "receiptTrie": "0x5a0928bbe1e125b04d41085c3ec40386398387bc62ba945715dee7f6cd559786",
                    "bloom": "0x00000000000000000000000000000000000000000000000000000000000000000000000000000000000000000000000000000000000000000000000000000000000000000000000000000000000000000000000000000000000000000000000000000000000000000000000000000000000000000000000000000000000000000000000000000000000000000000000000000000000000000000000000000000000000000000000000000000000000000000000000000000000000000000000000000000000000000000000000000000000000000000000000000000000000000000000000000000000000000000000000000000000000000000000000000000",
                    "difficulty": "0x00",
                    "number": "0x01",
                    "gasLimit": "0x055d4a80",
                    "gasUsed": "0x010936",
                    "timestamp": "0x03e8",
                    "extraData": "0x00",
                    "mixHash": "0x0000000000000000000000000000000000000000000000000000000000000000",
                    "nonce": "0x0000000000000000",
                    "baseFeePerGas": "0x07",
                    "withdrawalsRoot": "0x56e81f171bcc55a6ff8345e692c0f86e5b48e01b996cadc001622fb5e363b421",
                    "hash": "0xf6b5f9fadfab32e5eac5dc5223dba6326377c591f4eb0c13c333a138026db92e"
                },
                "transactions": [
                    {
                        "type": "0x00",
                        "chainId": "0x01",
                        "nonce": "0x00",
                        "gasPrice": "0x0a",
                        "gasLimit": "0x07a120",
                        "to": "0x1000000000000000000000000000000000001000",
                        "value": "0x00",
                        "data": "0x",
                        "v": "0x25",
                        "r": "0xa1cee6ee86abb606ed49dd3ce8d0153a181fbd33f9cb16ffa9ca62c551298bb2",
                        "s": "0x3a5d20dfff30a409e663844c76630498702ddbed41129a50788a7215f1b2a54d",
                        "sender": "0xa94f5374fce5edbc8e2a8697c15331677e6ebf0b"
                    }
                ],
                "uncleHeaders": [],
                "withdrawals": [],
                "rlp": "0xf90281f90218a09b8f641945122819fde1c8ae5a7ae680cc19e2fc168704498a5c6c5622231652a01dcc4de8dec75d7aab85b567b6ccd41ad312451b948a7413f0a142fd40d49347942adc25665018aa1fe0e6bc666dac8fc2697ff9baa004cbac25f0ccad9a26cdd06b112b285c0eb1513297da653ad1cb0dbe66d51fa8a08af1757a40f34fddf348ed349e681fccc8579146da7d954459272870f6a8494fa05a0928bbe1e125b04d41085c3ec40386398387bc62ba945715dee7f6cd559786b9010000000000000000000000000000000000000000000000000000000000000000000000000000000000000000000000000000000000000000000000000000000000000000000000000000000000000000000000000000000000000000000000000000000000000000000000000000000000000000000000000000000000000000000000000000000000000000000000000000000000000000000000000000000000000000000000000000000000000000000000000000000000000000000000000000000000000000000000000000000000000000000000000000000000000000000000000000000000000000000000000000000000000000000000000000000000800184055d4a80830109368203e800a0000000000000000000000000000000000000000000000000000000000000000088000000000000000007a056e81f171bcc55a6ff8345e692c0f86e5b48e01b996cadc001622fb5e363b421f862f860800a8307a120941000000000000000000000000000000000001000808025a0a1cee6ee86abb606ed49dd3ce8d0153a181fbd33f9cb16ffa9ca62c551298bb2a03a5d20dfff30a409e663844c76630498702ddbed41129a50788a7215f1b2a54dc0c0",
                "blocknumber": "1"
            }
        ],
        "sealEngine": "NoProof",
        "_info": {
            "hash": "0x47e834746206756be4c83d390d00f2a0e4eb8a92261767c8742623659e8bff59",
            "comment": "`execution-spec-tests` generated test",
            "filling-transition-tool": "ethereum-spec-evm-resolver 0.0.5",
            "description": "CALL with ret_offset larger than memory size and ret_size zero Then do an\n    MSTORE in that offset to see if memory was expanded in CALL.\n\n    This is for bug in a faulty EVM implementation where memory is expanded\n    when it shouldn't.",
            "url": "https://github.com/ethereum/execution-spec-tests/blob/e78565158bad26de99c70138163d49321a6acc84/tests/frontier/opcodes/test_call.py#L20",
            "fixture-format": "blockchain_test",
            "eels-resolution": {
                "git-url": "https://github.com/ethereum/execution-specs.git",
                "branch": "forks/bpos",
                "commit": "7aacb2c54111391af5e98c505d5010b5698a770f"
            }
        }
    }
}